:020000042000DA
:1000000008DC0020450100208D4400203D0F002029
:10001000ED41002049030020D967002000000000C6
:1000200000000000000000000000000059580020FF
:10003000350800200000000039460020ED5B00205C
:100040005F0100205F0100205F010020394E002089
:100050005F0100205F010020390800205F010020BF
:100060005F0100205F0100205F0100205F01002090
:100070005F0100205F0100205F0100205F01002080
:100080005F0100205F0100205F0100205F01002070
:100090005F0100205F0100205F0100205F01002060
:1000A0005F0100205F0100205F0100205F01002050
:1000B0005D5C00205F0100205F0100205F010020E7
:1000C0005F0100205F0100205F0100205F01002030
:1000D0005F0100205F0100205F0100205F01002020
:1000E0005F0100205F0100205F0100205F01002010
:1000F0005F0100205F0100205F0100205F01002000
:100100005F0100205F0100205F0100205F010020EF
:100110005F0100205F010020895D00205F01002059
:100120005F0100205F0100205F0100205F010020CF
:10013000DFF80CD000F0E4F800480047B19200204E
:1001400008DC00200648804706480047FEE7FEE737
:10015000FEE7FEE7FEE7FEE7FEE7FEE7FEE7FEE777
:10016000FD5B00203101002038B5D0E90221491E95
:1001700001EB410102EBC1014268C1EB011102EB4D
:1001800081010268C1EB011102EB8103D0E9042176
:1001900001EB410102EB8101A1F55271302491FB89
:1001A000F4F2154D04FB1211554303EBC5130093F4
:1001B0001A2902DB114A1A4400920C2391FBF3F234
:1001C0000F4C009D544303FB121105EBC4140D4A60
:1001D000009408E0491E40F2A324535C6343009C52
:1001E00004EBC31300930029F4DC0146684600F0D9
:1001F00047F8009838BD00003F0C0F008051010007
:1002000067C2030044AA002040EA01039B0703D011
:1002100009E008C9121F08C0042AFAD203E011F845
:10022000013B00F8013B521EF9D2704710B548431C
:10023000044609F08DF8002805D00021002C02D0DA
:10024000641E0155FAE710BD30B50B46014600208B
:100250002022012409E021FA02F59D4205D303FA88
:1002600002F5491B04FA02F52844151EA2F1010209
:10027000F1DC30BD014900F003B80000D8D3002004
:1002800030B50246084613683C22B3FBF2F102FB8C
:1002900011330360B1FBF2F302FB13111824416028
:1002A000B3FBF4F104FB113282600A1D0723B2FB99
:1002B000F3F403FB1422890001F66C3140F2B555CA
:1002C000B1FBF5F405FB1411826104F144028908C5
:1002D0004261C1613B2902D3920700D0491C002230
:1002E000064C13460261E25C8A4203D8891A5B1C01
:1002F0000361F8E7491CC16030BD000050AA00202E
:10030000064C074D06E0E06840F0010394E8070062
:1003100098471034AC42F6D3FFF70EFF8CAA0020AA
:10032000ACAA00201CB5002300931A4619461846B3
:10033000019300F00BF81CBD10B5012004F0FCFA8D
:10034000002004F0F9FA10BD00BFFEE72DE9F047E8
:1003500004460F4615461E46DDE908894FF6FF7133
:100360004D4800F0D1FC21464B4800F0CBFC0A2060
:1003700008F036FC2021494800F0C6FC0A2008F0AD
:100380002FFC2021454800F0BDFC0A2008F028FC85
:100390004FF6FF71404800F0B7FC39463E4800F088
:1003A000B1FC0A2008F01CFC40213C4800F0ACFCE9
:1003B0000A2008F015FC4021384800F0A3FC0A2070
:1003C00008F00EFC4FF6FF71334800F09DFC294603
:1003D000314800F097FC0A2008F002FC80212F48E9
:1003E00000F092FC0A2008F0FBFB80212B4800F073
:1003F00089FC0A2008F0F4FB4FF6FF71264800F054
:1004000083FC3146244800F07DFC0A2008F0E8FB1C
:100410000421224800F078FC0A2008F0E1FB0421C6
:100420001E4800F06FFC0A2008F0DAFB4FF6FF715F
:10043000194800F069FC4146174800F063FC0A20A7
:1004400008F0CEFB0821154800F05EFC142008F0EF
:10045000C7FB0821114800F055FC0A2008F0C0FB3A
:100460004FF6FF710C4800F04FFC49460A4800F077
:1004700049FC0A2008F0B4FB1021084800F044FCB5
:10048000142008F0ADFB1021044800F03BFC0A20CA
:1004900008F0A6FBBDE8F087001401400010014001
:1004A0002DE9F04105466D4806786D48446A072DF0
:1004B00071D2DFE805F09F174C040D829C00207973
:1004C00010B90520207102E02079401E207194E0CF
:1004D0002079052802D10020207102E02079401CFB
:1004E00020718AE0207906282ED2DFE800F0030A86
:1004F00011181F2660780E2802DA60780A306070C2
:1005000023E06078172802DA6078401C60701CE0F5
:10051000A078322802DAA0780A30A07015E0A0781E
:100520003B2802DAA078401CA0700EE0E078322868
:1005300002DAE0780A30E07007E0E0783B2802DA7F
:10054000E078401CE07000E000BF00BF55E020797B
:1005500006282FD2DFE800F0030A11182027607860
:10056000092802DD60780A38607024E0607800288D
:1005700002DD6078401E60701DE0A078092802DD71
:10058000A0780A38A07016E0A078002802DDA078D4
:10059000401EA0700FE02FE0E078092802DDE0782F
:1005A0000A38E07007E0E078002802DDE078401EBD
:1005B000E07000E000BF00BF1FE005F02FF9002150
:1005C000012004F0B9FC6078264981F8B600A178D2
:1005D000244880F8B710E17880F8B81005F01EF9CB
:1005E0000121084604F0A8FC0120207005E001204C
:1005F000207002E0BDE8F08100BF00BF00F0CCFE3B
:100600002078012812D11648006915490862204651
:1006100008F0D2FD00201449486200F069FF10493B
:10062000886980470E49C8698047E3E701200B4984
:100630000870E378A2786178207900F089F807489B
:1006400006700A480078012805D10448007810B9DE
:10065000012000F017F900BFCCE7000009C000201E
:1006600058D20020ACC00020FCD200200BC00020DB
:1006700070B52448057805210120FFF7D7FD2249F0
:1006800048620846446ADCB3002020701F4890F896
:10069000B60060701D4890F8B700A0701B4890F835
:1006A000B800E0700020207101201649087000F0A9
:1006B000F8FE17A25021022002F07AF91CA2822132
:1006C0000A2002F075F91DA2C821022002F070F97B
:1006D00027230022EF21104601F032FEE378A278B2
:1006E0006178207900F034F80648057017480078E2
:1006F000012805D10348007810B9012000F0C2F8A4
:1007000070BD000009C0002058D20020ACC00020FD
:10071000B5B1B9E2B1EAD6C3D3DAB8F6CEBBCAB145
:10072000BCD331A3ACCAAECEBBCAB1BCD33130004E
:1007300020203A20203A2020000000001B1A3AD244
:10074000C6B6AF2018193ABCD3BCF5000BC00020C8
:100750002DE9F04705460E4617469846002460E00E
:10076000AC4201D101F0A8F9304A02EB44025178C1
:100770002E4A12F8140001F0FBFDB02002F078F8C8
:10078000062C46D2DFE804F0030D19232F390A2086
:1007900096FBF0F0264911F80090484602F09EF8CA
:1007A00038E00A2096FBF0F100FB1160204911F8B7
:1007B0000090484602F092F82CE00A2097FBF0F0F7
:1007C0001B4911F80090484602F088F822E00A2000
:1007D00097FBF0F100FB1170154911F800904846A5
:1007E00002F07CF816E00A2098FBF0F0104911F8AE
:1007F0000090484602F072F80CE00A2098FBF0F1F5
:1008000000FB11800A4911F80090484602F066F892
:1008100000E000BF00BFAC4201D101F0C5FB601C8D
:10082000C4B2062C9CDBBDE8F0870000C2A9002002
:100830009CA900207047000010B5064800780128E8
:1008400004D100200349087001F0DEFD012000F012
:1008500003F810BD0BC0002001490860704700007C
:10086000140401401CB50120009000208DF8040004
:100870000C208DF8050001208DF80600684600F078
:100880000DF81CBD0349096841EA0001024AC2F89B
:100890001014704710040140000001400021274956
:1008A0008279DAB3264AD2F8002403689A43244BAB
:1008B000C3F800241A46D2F8042403689A4301F1CD
:1008C00004031A60027911440A68036842EA0302C9
:1008D0000A601B4AD2F80824036822EA0302184B74
:1008E000C3F808241A46D2F80C24036822EA03024B
:1008F000144B1A604279102A11D1114AD2F80824F7
:1009000003681A430E4BC3F808241A46D2F80C2485
:1009100003681A430A4BC3F80C240EE007E00749AA
:10092000427911440A6803681A430A6005E00279B3
:1009300011440A6803689A430A6070470004014042
:10094000000001400C04014025A029490860022054
:100950000872502048720020C86026A048602A48CB
:1009600048612A4888612AA0C8610221204880F88D
:1009700024106E2180F825100021816228A10162D7
:100980002C4901632C4941632CA019498863022139
:10099000174880F84010822180F8411000214164FE
:1009A0002AA1C1632E49C1642E49016503202E4945
:1009B0000870002048702DA048600D48C8602E487F
:1009C00088602E4808612E4848612E4888612E486C
:1009D000C86108460069086200204862704700004C
:1009E000C9C1CBB8D0EDBFC9C9E8D6C3000000006B
:1009F00004D20020C9E8D6C3D4CAD0EDC9C1CBB84F
:100A0000B5C4B5C6C9AB0000899000204190002054
:100A1000B0D7CCECB3A3C9C1C9E8D6C3000000006D
:100A2000C9E8D6C3B0D7D6E7B3A3C9C1B5C6C9AB69
:100A300000000000917A0020457A0020D2B9BCE481
:100A4000B3A3C9C1C9E8D6C300000000C9E8D6C332
:100A5000CDEDBCE4B3A3C9C1B5C6C9AB000000006D
:100A6000BD96002071960020DCD10020C9C1CBB812
:100A7000C9E8D6C300000000A4CF00205594002090
:100A8000698C0020098E0020558D002008B54FF696
:100A9000FF40ADF8000002208DF8020010208DF814
:100AA00003006946314800F06BF84FF44070ADF830
:100AB000000002208DF8020004208DF80300694632
:100AC0002A4800F05DF84FF6FF70ADF800000320F3
:100AD0008DF8020010208DF803006946244800F0CC
:100AE0004FF8FC20ADF8000002208DF80200102025
:100AF0008DF8030069461F4800F042F84FF400707B
:100B0000ADF8000003208DF8020018208DF80300D6
:100B10006946194800F034F84FF48060ADF80000E1
:100B200003208DF8020004208DF803006946124866
:100B300000F026F84FF47C50ADF8000002208DF84C
:100B4000020004208DF8030069460A4800F018F8F6
:100B5000C020ADF8000003208DF802001C208DF8A5
:100B600003006946054800F00BF808BD0018014075
:100B7000001401400010014000080140000C014039
:100B80002DE9F04102460025002600200023002424
:100B9000002791F803C00CF00F0591F803C01CF07A
:100BA000100F03D091F802C04CEA0505B1F800C05F
:100BB0001CF0FF0F31D0146800202BE04FF0010C27
:100BC0000CFA00F3B1F800C00CEA03069E4220D1F3
:100BD00083004FF00F0C0CFA03F7BC4305FA03FC3B
:100BE0004CEA040491F803C0BCF1280F06D14FF081
:100BF000010C0CFA00FCC2F814C00AE091F803C022
:100C0000BCF1480F05D14FF0010C0CFA00FCC2F802
:100C100010C0401C0828D1D31460B1F800C0BCF14A
:100C2000FF0F34DD546800202EE000F1080C4FF077
:100C3000010808FA0CF3B1F800C00CEA03069E4262
:100C400021D183004FF00F0C0CFA03F7BC4305FAD7
:100C500003FC4CEA040491F803C0BCF1280F05D151
:100C600000F1080C08FA0CF8C2F8148091F803C0DF
:100C7000BCF1480F07D100F1080C4FF0010808FA49
:100C80000CF8C2F81080401C0828CED35460BDE890
:100C9000F081000010B54FF480610A4800F034F88C
:100CA000012007F09DFF4FF6FF71064800F02CF879
:100CB000FC21054800F026F84FF6FF71034800F0CC
:100CC00023F810BD0018014000100140001401403D
:100CD0000146886880B270470246002093680B4244
:100CE00001D0012000E0002070470146C86880B2B2
:100CF000704702460020D3680B4201D0012000E07B
:100D0000002070474161704701617047C1607047C2
:100D10000AB1016100E041617047000040F2DC70FF
:100D200006494861072008610B20C86011208860CF
:100D30002C2048601E2008607047000080C0002002
:100D400010B5002408E07C4901EB041220011021B9
:100D500008F0EEF8601CC4B2062CF4DB12207649D1
:100D6000313981F8B6001E217348313880F8B71048
:100D700080F8B810480170493139A1F8920000217B
:100D80006D483138A0F89410A0F89610A0F898108B
:100D9000A0F89A10A0F89C10A0F89E10A0F8A0103F
:100DA000A0F8A210A0F8A410A0F8A610A0F8A8100F
:100DB000A0F8AA10A0F8AC10A0F8AE10A0F8B010DF
:100DC000A0F8B210A0F8B41002205B4931390870C5
:100DD0000C2048703A215848313881700021C17088
:100DE00004205549313981F8BA0008215248313878
:100DF00080F8BB10092180F8BC100A2180F8BD10D2
:100E00000B2180F8BE1046F22701A0F8CC104BF25F
:100E10000461A0F8CE1049F20871A0F8D0104FF488
:100E20002F41A0F8D21046F22701A0F8EC104BF2A7
:100E30000461A0F8EE1049F20871A0F8F0104FF428
:100E40002F41A0F8F21046F22701A0F80C114BF246
:100E50000461A0F80E1149F20871A0F810114FF4C6
:100E60002F41A0F8121146F22701A0F82C114BF2E5
:100E70000461A0F82E1149F20871A0F830114FF466
:100E80002F41A0F8321146F22701A0F84C114BF285
:100E90000461A0F84E1149F20871A0F850114FF406
:100EA0002F41A0F8521146F22701A0F86C114BF225
:100EB0000461A0F86E1149F20871A0F870114FF4A6
:100EC0002F41A0F872110E21017100214171817131
:100ED000022180F88C11142180F88D110C2180F8EA
:100EE0008E1140F20641A0F89E1146F62501A0F8A9
:100EF000A01140F60441A0F8BE1146F62501A0F865
:100F0000C01141F20601A0F8DE1146F62501A0F855
:100F1000E0114FF4E051A0F8FE1146F62501A0F8CB
:100F200000120021A0F81E12A0F82012A0F83E1214
:100F3000A0F8401210BD0000DDC0002000BFFEE799
:100F40001FB50F4800F04EF80E4800900020ADF895
:100F500004004BF6FF70ADF806003A20ADF808002B
:100F60004FF48060ADF80A000001ADF80C0069464E
:100F7000034800F081F80121014800F026F81FBD68
:100F800000540040A086010021B1028842F4806232
:100F9000028004E002884FF6FF331A400280704757
:100FA00070B502460024002500230020958A138B8B
:100FB0001B0445EA030626F07F4404EA01068E423C
:100FC00001D1012000E0002070BD21B1028842F073
:100FD0000102028004E002884FF6FE731A4002808C
:100FE0007047000010B504460B48844209D1012126
:100FF000480503F071FC00214FF4001003F06CFC75
:1010000008E00121880503F067FC00214FF480000F
:1010100003F062FC10BD00000054004021B10288C2
:1010200042F48072028004E002884FF6FF631A40A7
:101030000280704721B1028842F40072028004E00D
:1010400002884FF6FF531A400280704730B50346BE
:101050000020002400221A460C0F21F07F410CB121
:10106000143201E0090C183215680D4201D001203C
:1010700000E0002030BD00002DE9F04385B00446BB
:101080000D460026B1460427DFF8CC80A6884FF62F
:10109000C0710E40684603F0A7FCDDF808802F48B9
:1010A000B8FBF0F01FFA80F946EA0906A68020880E
:1010B0004FF6FE71084020800026294928688842A2
:1010C0000CD828684000B8FBF0F087B2042F00DA93
:1010D00004273E4309F10100208427E0E888A0F5B9
:1010E0003F41FF3906D1286800EB4000B8FBF0F023
:1010F00087B209E0286800EBC00101EB0010B8FBE3
:10110000F0F087B247F480473805000D01D147F071
:10111000010747F4004006434FF4967009FB00F0C6
:101120004FF47A7190FBF1F0401C2084A683208854
:1011300040F00100208026884FF6F5310E40A88847
:101140006989084306432680A889298908432081A4
:1011500005B0BDE8F083000000127A0040420F00A5
:10116000A08601000146088AC0B2704712B141F062
:10117000010102E04FF6FE731940018270470182BF
:101180007047000010B501F029F80D48006840785C
:1011900038B90B4800680078401E09490968487052
:1011A00006E0074800684078401E05490968487015
:1011B00000F008FF02490968C869804710BD0000B7
:1011C00018C0002010B501F009F80E4800684178F9
:1011D0000C4800680078401E814204D10020094973
:1011E0000968487006E0074800684078401C0549D7
:1011F0000968487000F0E6FE02490968C86980473E
:1012000010BD000018C0002010B500F0E7FF0C482A
:1012100000680C4988420BD10948006840780628CC
:1012200006DB074800684078801F05490968487058
:1012300000F0C8FE02490968C869804710BD000077
:1012400018C00020A4CF002010B500F0C7FF12483E
:1012500000681249884217D10F4800684078801D05
:101260000D4909680978884207DA0B480068407818
:10127000801D09490968487006E007480068007841
:10128000401E05490968487000F09CFE0249096843
:10129000C869804710BD000018C00020A4CF0020FE
:1012A00010B52A4804686178C1EBC101E06800EB21
:1012B0008100C068F0B16178C1EBC101E06800EB6A
:1012C0008100C068214908606069096849698842ED
:1012D00005D000F000F91D4909684869804700F011
:1012E00007F91A4909688869804718490968C8696F
:1012F000804729E06178C1EBC101E06800EB810023
:10130000406980B16278C2EBC202E16801EB820100
:10131000886980476178C1EBC101E06800EB81001A
:101320004069206210E06178C1EBC101E06800EB28
:101330008100006940B16278C2EBC202E06800EB54
:10134000820001690020884710BD000018C00020FD
:1013500010B510480468A068D8B1002060702069FA
:1013600020620C49A0680860606909684969884280
:1013700005D000F0B0F8074909684869804700F0D7
:10138000B7F8044909688869804702490968C8694B
:10139000804710BD18C000200D480078002804DDEB
:1013A0000B480078401E0A490870002009490A4A83
:1013B00012788854084800780F2805DA0648007823
:1013C000401C0549087002E000200349087070477E
:1013D00011C0002094CF00200FC0002070B504463B
:1013E000122000F0DBFE00F0FC0040EA0405294674
:1013F000122001F0A9FA012007F0F2FB70BD2DE9DF
:10140000F04704460D462F46122000F0C7FE00F0BC
:101410000308122000F0C2FE00F0FC094946122029
:1014200001F092FA0021602001F08EFA214670202E
:1014300001F08AFAB02001F01BFA002605E017F847
:10144000010B01F04BFA701CC6B2202EF7DB122004
:1014500000F0A4FE00F0FC0040EA08094946122012
:1014600001F072FABDE8F08710B500F03FFE00F021
:101470003DFA0021E02001F067FA002000F08EFE26
:1014800040F008042146F02001F05EFA012007F048
:10149000A7FB00BF002000F081FE10F0080FF9D17B
:1014A00010BD10B50120FFF799FF27230022EC2182
:1014B0004A2000F045FFFFF7D7FF10BD10B501200F
:1014C000FFF78CFF1C230122EC214A2000F038FF9B
:1014D000FFF7CAFF10BD10B50220FFF77FFF2623DC
:1014E0000122EC21352000F02BFFFFF7BDFF10BDDE
:1014F00010B50120FFF772FF27230022EC213520D1
:1015000000F01EFFFFF7B0FF10BD70B504461220BB
:1015100000F044FE00F0F30040EA040529461220E2
:1015200001F012FA70BD00001CB50120524908708C
:10153000FFF754FF26230122EC21352000F000FFA5
:10154000FFF792FF0220FFF749FF26230122EC213B
:10155000352000F0F5FEFFF787FF8F231322CDE93A
:101560000023012302223521184600F0A1F814239C
:101570002622CDE9002302230122C421104600F0D7
:1015800097F82022C621022001F05EF900244EE0E7
:101590003A484078A04201D100F08EFAC4EBC40072
:1015A000374901EB8000C06870B1C4EBC4020B4640
:1015B00003EB8202517AC4EBC40203EB8202107A7D
:1015C00030A201F0F5F923E0C4EBC4002C4901EB93
:1015D0008000406970B1C4EBC4020B4603EB820289
:1015E000517AC4EBC40203EB8202107A26A201F006
:1015F000DFF90DE0C4EBC402214B03EB8202517A08
:10160000C4EBC40203EB8202107A20A201F0D0F9ED
:10161000C4EBC4011A4A52F8210001F0B5F9174889
:101620004078A04201D100F0BFFC601CC4B2134856
:101630000078A042ACDC16A2C621022001F0B8F965
:101640000E484078C0EBC0000D4901EB8000DA2164
:101650004268022001F0ACF927230022EF21104656
:1016600000F06EFE00200449087010480078012840
:1016700001D1FFF707F91CBD09C00020A4CF00204D
:10168000CCCF00202B2000001020000020200000E4
:1016900018191A1B3AD2C6B6AF20454E543AD1A1FA
:1016A000D4F1204553433ACDCBB3F6000BC0002014
:1016B0002DE9FF4F81B007460D4690469946DDF86B
:1016C00038A00220FFF78AFE00F010FD00241CE085
:1016D0000F9800FB0450C1B2384600F049FEB0201C
:1016E00001F0C6F84FF0000B09E0FF2001F0F6F81A
:1016F000012007F075FA0BF1010000F0FF0B0AFB67
:1017000008F05845F1DC601CC4B209F101008442C4
:10171000DEDB002428E000261FE0AA19521CD1B20B
:101720000AFB0472D0B200F023FEB12001F0A0F851
:1017300000F0EAFC0090AA19521CD1B20AFB047214
:10174000D0B200F015FEB02001F092F8009941F0FF
:10175000800001F0C3F8701CC6B20F9800FB09F0BE
:10176000B042DADC601CC4B208F101008442D2DB72
:1017700005B0BDE8F08F2DE9F04707460D46164647
:101780009A460220FFF72AFE00F0B0FC0024A5E0F4
:10179000B4BB2819C1B2384600F0EAFDB12001F00F
:1017A00067F800F0B1FC80466019C1B2384600F01D
:1017B000DFFDB02001F05CF848F00F0001F08EF87A
:1017C0004FF0010906E0FF2001F088F809F101005F
:1017D00000F0FF09B145F6DBB12001F049F800F057
:1017E00093FC80466219D1B2BA19D0B200F0C0FDA4
:1017F000B02001F03DF848F0F00001F06FF86BE028
:10180000FFE7AAF10100A04235D16019C1B2384604
:1018100000F0AEFDB12001F02BF800F075FC804621
:101820006019C1B2384600F0A3FDB02001F020F8E5
:1018300048F00F0001F052F84FF0010906E0FF20D8
:1018400001F04CF809F1010000F0FF09B145F6DBA9
:10185000B12001F00DF800F057FC80466219D1B2BA
:10186000BA19D0B200F084FDB02001F001F8F020E8
:1018700001F034F830E02819C1B2384600F078FDA4
:10188000B12000F0F5FF00F03FFC80462819C1B2FE
:10189000384600F06DFDB02000F0EAFF48F0080087
:1018A00001F01CF82A19D1B2BA19521ED0B200F0B8
:1018B0005FFDB12000F0DCFF00F026FC80462A1915
:1018C000D1B2BA19D0B200F053FDB02000F0D0FF71
:1018D00048F0100001F002F8601CC4B25445FFF655
:1018E00057AFB12000F0C4FFBDE8F08710B501206C
:1018F00000F054FC20F080042146012001F024F87F
:1019000010BD70B5044600F0F1FBFFF7EFFF214674
:10191000E02001F019F8002000F040FC40F008053C
:101920002946F02001F010F870BD000010B5044900
:101930000020FFF764FD03490120FFF760FD10BDA3
:101940005CA900207CA9002010B500F0D7FC042180
:10195000002000F0F9FF0421012000F0F5FF002134
:10196000032000F0F1FF00210F2000F0EDFF002127
:10197000102000F0E9FF0021112000F0E5FF032016
:10198000FFF72CFD302000F0FFFC0420FFF7BDFD29
:1019900027230022EF21104600F0D2FC0020FFF7A1
:1019A000B0FF2721212000F0CFFFEF21312000F0F0
:1019B000CBFF0021612000F0C7FF0021712000F063
:1019C000C3FF0021622000F0BFFF0021722000F061
:1019D000BBFF0021602000F0B7FF0821702000F05D
:1019E000B3FF0221802000F0AFFF0021902000F023
:1019F000ABFF0021F12000F0A7FF012000F0D2FC96
:101A0000F02000F0CBFB00F0FB042146F02000F0BA
:101A10009BFF0120FFF7E2FC10BD000010B5EF2393
:101A2000272200210846FFF7A6FE0BA20221012073
:101A300000F0BEFF12A21321012000F0B9FF14A292
:101A40001321142000F0B4FF15A22421012000F07E
:101A5000AFFFFFF769FD10BDB5B1C7B0CAB1BCE4B7
:101A60003A5B202020202D20202D20205D5B20208F
:101A70003A20203A20205D20D0C7C6DA00000000BE
:101A8000D4CBD0D0CAB1B6CE3A202028202029000D
:101A9000D4CBD0D0CFE0CEBB3A20202820202900C4
:101AA000B5B1C7B0CFE0CEBBCAA3D3E0CAB1BCE4E6
:101AB0003A202020C3EB000010B5102000F06EFB90
:101AC00040F020042146102000F03EFF10BD000031
:101AD0002DE9F0410646864807788648446A0C2E70
:101AE00078D2DFE806F0C3195E060FC4C0478DC484
:101AF000C4A4607810B91020607002E06078401EC5
:101B00006070B5E06078102802D10020607002E0BB
:101B10006078401C6070ABE06078B0B9A07C0528AC
:101B200003DAA07C401CA07401E00020A074002512
:101B300008E0A17C704800EB0110415DA01C4155FC
:101B4000681CC5B2102DF4DB13E06078401EA11CA8
:101B5000085C602808DA6078401E085C401CC2B24D
:101B60006078401E0A5404E000226078401EA11CE8
:101B70000A547DE0607898B16078401EA11C085C32
:101B8000602808DA6078401E085C401CC2B26078A9
:101B9000401E0A5404E000226078401EA11C0A5432
:101BA00066E06078B8B9A07C002803DDA07C401E08
:101BB000A07401E00520A074002508E0A17C4E4837
:101BC00000EB0110415DA01C4155681CC5B2102DF1
:101BD000F4DB14E04BE06078401EA11C085C602838
:101BE00008DA6078401E085C401EC2B26078401E71
:101BF0000A5404E000226078401EA11C0A5437E019
:101C0000607898B16078401EA11C085C002808DD4F
:101C10006078401E085C401EC2B26078401E0A54C4
:101C200004E060226078401EA11C0A5420E003F00A
:101C3000F5FD0021012003F07FF9002508E0A01C3C
:101C4000415DA27C2C4800EB02104155681CC5B2D6
:101C5000102DF4DB03F0E2FD0121084603F06CF9DE
:101C60000120E07404E00120207001E002E000BFE8
:101C700000BF07E0E07C18B10020E07407F0C4FA70
:101C8000BDE8F081FFF788FBE07C012803D11BA0B1
:101C900007F0E2FA00E000BF00BF2078012812D16F
:101CA0001448006913490862204607F085FA0020AD
:101CB00010494862FFF71CFC0E49886980470D49AE
:101CC000C8698047DCE70120094908706078A11CD9
:101CD00000F002F9064807700B480078012805D18A
:101CE0000348007810B90120FEF7CCFD00BFC7E71C
:101CF00009C00020B8D20020DDC00020C9E8D6C34A
:101D0000B3C9B9A6000000000BC0002070B5394867
:101D1000067814210120FEF789FA374948620846FF
:101D2000446AF4B3002020706070A074E074002551
:101D300008E0A17C314800EB0110415DA01C415539
:101D4000681CC5B2102DF4DB01202A490870FFF78A
:101D5000A8FB27230022EF21104600F0F1FA28A269
:101D60004B21022000F024FE2DA25D210B2000F06B
:101D70001FFE2FA26F21052000F01AFE31A2812143
:101D8000052000F015FE34A29321052000F010FE7E
:101D900036A2A521052000F00BFE39A2B7210520AF
:101DA00000E025E000F004FE3AA2C921052000F081
:101DB000FFFD3DA2B0211D2000F0FAFD3CA2C42190
:101DC0001D2000F0F5FD3DA2DC21022000F0F0FD19
:101DD0006078A11C00F080F8064806703D48007845
:101DE000012805D10348007810B90120FEF74AFD0B
:101DF00070BD000009C00020B8D20020DDC0002066
:101E0000B5C6D7E9202028B6CBBFDAD0F2BAC53A9A
:101E1000312D393620A1C13ABDFBD3C329000000C2
:101E2000C2CC202020BBC6202020BAEC000000003D
:101E3000D7F3D7AA205B20205D205B20205D205BAC
:101E400020205D00D6B1D0D0205B20205D205B201B
:101E5000205D205B20205D00D3D2D7AA205B20200C
:101E60005D205B20205D205B20205D00B5F7CDB7B5
:101E7000205B20205D205B20205D205B20205D001A
:101E8000C8CBD0D0315B20205D2020202020205BDB
:101E900020205D00C8CBD0D0325B20205D202020E8
:101EA0002020205B20205D001A1B3AD2C6B6AF006E
:101EB00018193AD1A1D4F1B6CBBFDA00C7EBB3A45D
:101EC000B0B4C8B7B6A8BCFCD2D4B1A3B4E6C9E8D4
:101ED000D6C300000BC000202DE9F041074688461C
:101EE0002C48456A002451E06878A04201D1FFF7F0
:101EF000E3FD74B9AB7C5B1C274E56F82320274BBF
:101F000003EB44035978254B13F8140000F050FDFF
:101F100035E0224A02EB44025178204A12F81400BC
:101F200000F026FA601EA91C085C18B91CA000F07D
:101F30002BFD24E0B02000F09BFC601EA91C085C77
:101F40000A2190FBF1F008B9202007E0601EA91CCF
:101F5000085C0A2190FBF1F01249085CC6B23046D9
:101F600000F0BCFC601EA91C085C0A2190FBF1F289
:101F700001FB12000B490E5C304600F0AFFC6878A4
:101F8000A04201D100F010F8601CC4B2112CABDBF0
:101F9000BDE8F081B8D2002020C00020CEA90020EA
:101FA000A1C100009CA9002010B5102000F0F6F897
:101FB00020F020042146102000F0C6FC012006F08D
:101FC0000FFE10BD10B54348047801204149087048
:101FD000FFF772FD40480068C0683F4909684978CA
:101FE000C1EBC10100EB8100C068C8B13A4A126878
:101FF000D268394B1B685B78C3EBC30302EB8302E7
:10200000517A354A1268D268334B1B685B78C3EB50
:10201000C30302EB8302107A30A200F0C9FC3EE059
:102020002D480068C0682C4909684978C1EBC10196
:1020300000EB81004069C8B1274A1268D268264B7C
:102040001B685B78C3EBC30302EB8302517A224A1D
:102050001268D268204B1B685B78C3EBC30302EBAA
:102060008302107A1EA200F0A3FC18E01A4A12683C
:10207000D268194B1B685B78C3EBC30302EB830286
:10208000517A154A1268D268134B1B685B78C3EB10
:10209000C30302EB8302107A12A200F089FC0E49FE
:1020A0000968C9680C4A12685278C2EBC20251F83A
:1020B000220000F069FCFFF777FF064804700A4829
:1020C0000078012805D10348007810B90120FEF7F7
:1020D000D9FB10BD09C0002018C000202B20000033
:1020E00010200000202000000BC0002010B50020B0
:1020F00000F054F820F008042146002000F024FCF1
:10210000052006F06DFD10BD38B500BF4FF480719D
:102110002148FEF7E1FD0028F8D0FF20ADF80000CF
:1021200003208DF8020004208DF8030069461A4848
:10213000FEF726FD4FF440511748FEF7E5FD4FF43A
:1021400080611548FEF7DEFD4FF400611248FEF78E
:10215000D9FD4FF400511048FEF7D4FD0E48FEF7AC
:10216000B7FDC4B24FF400510B48FEF7CDFD4FF45C
:1021700080610948FEF7C8FDFF20ADF8000003208C
:102180008DF8020010208DF8030069460248FEF722
:10219000F7FC204638BD00000018014070B5044629
:1021A0000C48067801200B490870204600F060FBBF
:1021B000FFF7AAFF05460748067007480078012880
:1021C00005D10448007810B90120FEF75BFB2846D2
:1021D00070BD000009C000200BC0002010B54148B0
:1021E000047801203F4908703F480068C0683E49B4
:1021F00009684978C1EBC10100EB8100C068C8B132
:10220000394A1268D268384B1B685B78C3EBC3034A
:1022100002EB8302517A344A1268D268324B1B684F
:102220005B78C3EBC30302EB8302107A2FA200F0AA
:10223000BFFB3EE02C480068C0682B49096849781C
:10224000C1EBC10100EB81004069C8B1264A1268A8
:10225000D268254B1B685B78C3EBC30302EB830298
:10226000517A214A1268D2681F4B1B685B78C3EB16
:10227000C30302EB8302107A1DA200F099FB18E061
:10228000194A1268D268184B1B685B78C3EBC3030A
:1022900002EB8302517A144A1268D268124B1B680F
:1022A0005B78C3EBC30302EB8302107A11A200F048
:1022B0007FFB0D490968C9680B4A12685278C2EB66
:1022C000C20251F8220000F05FFB064804700A4881
:1022D0000078012805D10348007810B90120FEF7E5
:1022E000D1FA10BD09C0002018C000202B2000002A
:1022F00010200000202000000BC0002010B54FF47B
:1023000080610E48FEF7FEFC4FF440510B48FEF78B
:10231000FBFC4FF480410948FEF7F4FC43F698209B
:1023200006F06AFC4FF480410448FEF7EDFC4FF4E0
:1023300080610248FEF7E8FC10BD00000018014073
:102340002DE9F04104460F4615461E462946402019
:1023500000F0FAFA2146502000F0F6FA314620202B
:1023600000F0F2FA3946302000F0EEFABDE8F081D4
:1023700070B504460D462146602000F0E5FA294676
:10238000702000F0E1FA70BD70B504461220FFF72E
:1023900005FF00F08F0040EA04052946122000F0F6
:1023A000D3FA70BD70B50446012C09D11020FFF797
:1023B000F5FE40F010052946102000F0C5FA08E0AF
:1023C0001020FFF7EBFE00F0EF052946102000F08B
:1023D000BBFA70BD10B50020FFF7E0FE40F0080426
:1023E0002146002000F0B0FAF020FFF7D7FE00F001
:1023F000FB042146F02000F0A7FAFFF777FA05204A
:1024000006F0EEFB10BD00002DE9F0476020FFF75D
:10241000C5FE06467020FFF7C1FE07465020FFF7B5
:10242000BDFE80463020FFF7B9FE81464020FFF711
:10243000B5FE82462020FFF7B1FE054600BFF02022
:10244000FFF7ACFE10F0010FF9D127230022EF2196
:102450001046FFF775FFEB4840694FF47A7190FB27
:10246000F1F0E9490C5C224602210B2000F0ECF966
:10247000E4484069642190FBF1F00A2190FBF1F2FD
:1024800001FB1200E0490C5C204600F0CFF9DD486A
:102490004069642190FBF1F201FB12000A2190FBDC
:1024A000F1F0D9490C5C204600F0C0F9D5484069EC
:1024B0000A2190FBF1F201FB1200D3490C5C20468B
:1024C00000F0B4F92D2000F0B1F9CE480069401CAD
:1024D0000A2190FBF1F008B9202007E0C948006903
:1024E000401C0A2190FBF1F0C749085CC4B22046A9
:1024F00000F09CF9C3480069401C0A2190FBF1F2EE
:1025000001FB1200C0490C5C204600F08FF92D2021
:1025100000F08CF9BB48C0680A2190FBF1F008B9C3
:10252000202006E0B748C0680A2190FBF1F0B649C8
:10253000085CC4B2204600F079F9B248C0680A21AC
:1025400090FBF1F201FB1200AF490C5C204600F059
:102550006DF9AC488069AD4951F820200221252051
:1025600000F026FAA74880680A2190FBF1F008B92C
:10257000202006E0A34880680A2190FBF1F0A249E0
:10258000085CC4B222460221172000F05DF99D4884
:1025900080680A2190FBF1F201FB12009A490C5C61
:1025A000204600F043F93A2000F040F99548406891
:1025B0000A2190FBF1F008B9202006E0914840681C
:1025C0000A2190FBF1F09049085CC4B2204600F06B
:1025D0002DF98C4840680A2190FBF1F201FB1200B2
:1025E00089490C5C204600F021F93A2000F01EF9E0
:1025F000844800680A2190FBF1F008B9202006E029
:10260000804800680A2190FBF1F07F49085CC4B261
:10261000204600F00BF97B4800680A2190FBF1F29C
:1026200001FB120078490C5C204600F0FFF8784866
:102630000078401C0A2190FBF1F008B9202006E048
:10264000734800780A2190FBF1F06F49085CC4B22E
:10265000224613210A2000F0F7F86D480078401C4C
:102660000A2190FBF1F201FB120067490C5C204645
:1026700000F0DCF8674800780A2190FBF1F008B917
:10268000202006E0634800780A2190FBF1F05E49C3
:10269000085CC4B2224613210D2000F0D5F85D4835
:1026A00000780A2190FBF1F201FB120056490C5C04
:1026B000204600F0BBF858480078401C0A2190FBE7
:1026C000F1F008B9202006E0534800780A2190FB79
:1026D000F1F04D49085CC4B2224613211D2000F0E0
:1026E000B3F84D480078401C0A2190FBF1F201FB41
:1026F000120045490C5C204600F098F844480078E8
:10270000C0EB0010C0EBC0014248BA3010F8110015
:102710000A2190FBF1F008B920200EE03C48007837
:10272000C0EB0010C0EBC0013A48BA3010F81100FD
:102730000A2190FBF1F03449085CC4B2224613210F
:10274000202000F081F832480078C0EB0010C0EB88
:10275000C0013048BA3010F811000A2190FBF1F2A4
:1027600001FB120028490C5C204600F05FF82B4862
:1027700000780A2190FBF1F008B9202006E02748F4
:1027800000780A2190FBF1F01F49085CC4B2224690
:102790002421122000F058F8204800780A2190FBEC
:1027A000F1F201FB120018490C5C204600F03EF8E3
:1027B0001B480078012805D1002224211C2000F0AC
:1027C00016F904E017A224211C2000F0F1F81648A5
:1027D0000078012805D1012224211F2000F007F9EB
:1027E00004E010A224211F2000F0E2F82B465246FC
:1027F00049464046FFF7A4FD39463046FFF7B8FD8D
:10280000BDE8F08780C000209CA9002020C00020E7
:102810000EC00020ACC000200DC000200CC0002065
:1028200003C000202020000007C0002010B504468F
:102830000120FEF7D3FDFFF7CDFDB02000F018F822
:10284000204600F04BF810BD70B505460E46144604
:102850000120FEF7C3FDFFF7BDFD31462846FFF717
:1028600087FDB02000F004F8204600F037F870BD76
:1028700070B5044600BF4FF480711748FEF72CFA7C
:102880000028F8D04FF440511348FEF73DFA1248A3
:10289000FEF72BFA00F47F4040EA040529460E4873
:1028A000FEF734FA4FF480610B48FEF72BFA4FF431
:1028B00000610948FEF728FA4FF480510648FEF7F8
:1028C00021FA4FF480510448FEF71EFA4FF480615C
:1028D0000148FEF719FA70BD0018014070B50446B2
:1028E00000BF4FF480711748FEF7F6F90028F8D0C2
:1028F0004FF440511348FEF707FA1248FEF7F5F976
:1029000000F47F4040EA040529460E48FEF7FEF930
:102910004FF480610B48FEF7F5F94FF40061094868
:10292000FEF7F0F94FF480510648FEF7EBF94FF44B
:1029300080510448FEF7E8F94FF480610148FEF742
:10294000E3F970BD0018014070B505460C460C480F
:10295000067801200A4908702846FFF789FF2046BB
:10296000FFF7BCFF0648067006480078012805D12D
:102970000348007810B90120FDF784FF70BD000006
:1029800009C000200BC0002070B505462C46012070
:10299000FEF724FDFFF71EFDB020FFF769FF03E0FF
:1029A00014F8010BFFF79AFF20780028F8D170BDCA
:1029B0002DE9F04106460F4615462C460120FEF74C
:1029C0000DFDFFF707FD39463046FFF7D1FCB0207B
:1029D000FFF74EFF06E014F8010BFFF77FFF012021
:1029E00006F0FEF820780028F5D1BDE8F0812DE949
:1029F000F04105460E4614460120FEF7EFFCFFF7B6
:102A0000E9FC0020FFF7CAFB40F0400739460020F0
:102A1000FFF79AFF31462846FFF7AAFCB020FFF7E0
:102A200027FF9F20FFF75AFF2046FFF757FF0020A0
:102A3000FFF7B4FB20F0400739460020FFF784FF82
:102A4000BDE8F08113A017490860022008725020E9
:102A5000487215A048600020C8601A4848611A48AA
:102A600088610120194908700020487018A048604A
:102A70000C48C860194888601948086119484861BD
:102A8000194888611948C861084600690862002031
:102A900048627047D0DEB8C4B5C6D7E9D0F2BAC52F
:102AA00000000000E0D20020D0DEB8C4B5C6D3EBF1
:102AB000CAE4B3F6BFDAB5C4D3B3C9E4B9D8CFB565
:102AC00000000000D11A00200D1D0020B8D2002007
:102AD000B5C6CEBBB5C6C9AB00000000A4CF002070
:102AE00055940020698C0020098E0020558D00200F
:102AF0002DE9F0410546884807788848446A112D39
:102B000073D2DFE805F0871725091033731E2C8870
:102B10008888888888887E002078272802DA2078AC
:102B20000A30207078E020780A2802DD20780A3800
:102B3000207071E02078302802DA2078401C207064
:102B40006AE02078302802DA2078401C207063E0A8
:102B50002078012802DD2078401E20705CE020787B
:102B6000012802DD2078401E207055E020790B28D6
:102B700000D151E04FF6FF716948FEF7C5F82078A3
:102B8000461EF01706EB10700011A6EB0012012094
:102B9000904081B26248FEF7B5F8012006F020F8B7
:102BA00021784E1EF11706EB1171C1F3071000F0EA
:102BB00069FD804601465B48FEF7A6F8012006F055
:102BC0000FF821784E1EF11706EB1171C1F30710B3
:102BD00000F058FD804601465248FEF795F8012066
:102BE00005F0FEFF0120207116E014E020790B288B
:102BF00004D10820207106F007FB01E009202071B4
:102C00000AE00B202071FDF78DFB0120E070002011
:102C1000A07001E002E000BF00BF57E0207901286A
:102C200002D00B284ED104E00820207106F0ECFA07
:102C300049E0A078032841DD0020A070E078461E1E
:102C4000F01706EB10700011A6EB00120120904067
:102C5000C04381B23248FEF759F8012005F0C0FFA9
:102C600021784E1EF11706EB1171C1F3071000F029
:102C700009FD804601462B48FEF746F8012005F085
:102C8000AFFF21784E1EF11706EB1171C1F307104B
:102C900000F0F8FC804601462248FEF735F8012096
:102CA00005F09EFFE078302803DAE078401CE07001
:102CB00007E006F0A9FA0820207102E0A078401C85
:102CC000A07000E000BF00BFBDE8F081FEF764FB2C
:102CD0002079012802D00B2808D103E012A006F0C9
:102CE000BBFA04E013A006F0B7FA00E000BF00BF93
:102CF000012009490870207800F026F8064807707E
:102D000010480078012805D10348007810B9012047
:102D1000FDF7B8FD00BFD7E709C000205CD3002055
:102D20000014014000100140B8FCB8C4B3C9B9A6F2
:102D300000000000D7D4B6AFB2E2CAD4BFAACABC62
:102D4000000000000BC0002070B50446FEF7B4FE82
:102D50008C211020FFF70CFBB020FFF789FD0A2023
:102D600094FBF0F008490D5C2846FFF7B7FD0A20F8
:102D700094FBF0F100FB114003490D5C2846FFF77E
:102D8000ADFDFFF711F970BD9CA9002010B50C2115
:102D90000120FDF74BFA094948620846446A5CB1D4
:102DA000012020700020E07060702071C4F80500E0
:102DB000A4F8090000F06EF810BD00005CD30020FC
:102DC00070B51C48446A1C48057801201A490870EF
:102DD000FEF774FB27230022EF211046FFF7B0FA1D
:102DE00016A250210220FFF7E3FD1AA2642102205F
:102DF000FFF7DEFD1AA278210220FFF7D9FD1EA2FF
:102E00008C210220FFF7D4FD2078FFF79DFF0A48B0
:102E100005701E480078012805D10748007810B9D0
:102E20000120FDF72FFDFDF77DFA012018490870FC
:102E300070BD00005CD3002009C00020C9E8D6C3E3
:102E4000D2AABCECB2E2B5C4BDBBCDA8B5C6D0F227
:102E5000BAC5000028312D3438BAC5290000000059
:102E60001B1A3AD0F2BAC5A1C031302018193AD095
:102E7000F2BAC5A1C0310000B5B1C7B0B2E2CAD440
:102E8000D0F2BAC5A1BE2020A1BF00000BC0002017
:102E900008C0002070B505463248446A20790C28E5
:102EA0005CD2DFE800F0061A5B5B5B5B0E151C2052
:102EB0000D1BE07A611D01F0C9F90620207170BD7B
:102EC00000BF631D9A1D211D284601F037FA46E018
:102ED000FFF776FF08202071F1E700BF00BF28460A
:102EE000FFF706FE3BE01F4800691E4908622046C6
:102EF00006F062F900201B494862FEF7F9FA194909
:102F0000886980471749C8698047002016490870BA
:102F1000164908701649087003F00EFB03F04EFBCB
:102F200014480078C0EB0010C0EBC002124800EB60
:102F30004201D2221148FDF767F91048401C0A49A6
:102F40000978405C0E490870074801780948007804
:102F500000F0AEF900200B490870B0E700BF00BFD9
:102F600000BFACE75CD300200DC0002004C00020EF
:102F700005C000200EC0002066C10020C2CE002087
:102F80000CC0002008C0002070B586B03F48007813
:102F900006280CDD002407E03D4830F8140003A9A2
:102FA00021F81400601CC4B2062CF5DB38E0374869
:102FB0000078062818DC35480078032814DB002444
:102FC0000FE0344830F81400334931F81410084049
:102FD0002F4931F81410084303A921F81400601C8C
:102FE000C4B2062CEDDB1BE028480078032817DA72
:102FF000002413E0274830F81400284931F8141051
:103000004840254931F814100840214931F814107E
:10301000084303A921F81400601CC4B2062CE9DBA4
:103020001F484089C043BDF816104840C04383B2D2
:103030001B480089C043BDF814104840C04382B209
:10304000174DCDE90023ED88ED43BDF812607540C2
:10305000ED43ABB2124DAD88ED43BDF81060754045
:10306000ED43AAB20E4D6D88ED43BDF80E6075407C
:10307000ED43A9B20A4D2D88ED43BDF80C607540B3
:10308000ED43A8B2FDF762F906B070BD0CC0002098
:10309000AACE002086CE0020B6CE00209ECE0020F4
:1030A00092CE00207CB5002533E00A242DE077483D
:1030B00000EB0510005D30B3744A02EB0512125D9F
:1030C000501EC21700EB12721211714B33F812200E
:1030D0006E4B03EB05131B5D591ECB1701EB1373EE
:1030E0001B11A1EB03160123B3401A4393B2674AA5
:1030F00002EB0512125D501EC21700EB1272121184
:10310000634E26F81230601CC4B2102CCFDB681C52
:10311000C5B2062DC9DB5E48438902890646CDE962
:103120000023F388B28871883088FDF70FF90520F5
:1031300058490870FDF7F2FD01F012FE0BE0564809
:103140000078012807D153480078401E5149087083
:103150000020514908704F4800780028EFD1002422
:1031600005E000204A4921F81400601CC4B2062C76
:10317000F7DB002533E006242DE0444800EB051082
:10318000005D30B3414A02EB0512125D501EC217BA
:1031900000EB127212113E4B33F812203B4B03EB43
:1031A00005131B5D591ECB1701EB13731B11A1EB0C
:1031B00003160123B3401A4393B2344A02EB0512BB
:1031C000125D501EC21700EB12721211304E26F81B
:1031D0001230601CC4B20A2CCFDB681CC5B2062DAD
:1031E000C9DB05202B49087020E02B480078012816
:1031F0000ED10020284908702548438902890646D7
:10320000CDE90023F388B28871883088FDF79EF8F5
:1032100022480078012809D11E480078401E1D4927
:10322000087000201D490870FDF77CF819480078E7
:103230000028DAD10021012001F07EFE03F07CF9A4
:1032400003F0BCF916480078C0EB0010C0EBC002D8
:103250000E48893000EB4201D2221248FCF7D4FF1D
:103260001048401C10490978405C0A490870012048
:103270000E4908700C4801780948007800F018F8E9
:103280000121084601F058FE7CBD0000DDC0002091
:1032900086CE00200CC0002000C0002002C000200C
:1032A0000EC00020C2CE00200DC0002006C00020AD
:1032B000F0B505460A4600200BE00023C74C24F871
:1032C0001030C74C24F81030C64C24F81030431C82
:1032D000D8B20628F1DB002186E000207FE0C24B57
:1032E00003EB01131B5CEBB3BF4E06EB0116365C20
:1032F000741EE61704EB16763611B84F37F81670C1
:10330000BA4E06EB411636F812604FF0010C0CFA7B
:1033100000FC16EA0C0F01D100260DE0B24E06EBC0
:103320000116365C731EDE1703EB16763611A3EB1F
:10333000061C012606FA0CF63743AB4E06EB0116C7
:10334000365C741EE61704EB16763611DFF88CC275
:103350002CF81670A44B03EB0114831DE35C0BB136
:10336000A14E00E039E006EB0117861DBE5D741E1C
:10337000E61704EB16763611674637F816709B4E43
:1033800006EB411636F812604FF0010C0CFA00FC07
:1033900016EA0C0F01D100260FE0934E06EB011C3C
:1033A000861D1CF80660731EDE1703EB16763611B9
:1033B000A3EB061C012606FA0CF637438A4E06EBF1
:1033C000011C861D1CF80660741EE61704EB1676B9
:1033D0003611DFF808C22CF81670431CD8B2042846
:1033E000FFF67DAF4B1CD9B20629FFF676AF002160
:1033F000F0E00020E9E07C4B03EB01131B5CF3B32E
:10340000794E06EB0116365C741EE61704EB167651
:103410003611734F37F81670744E06EB411636F8B6
:1034200012604FF0010C0CFA00FC16EA0C0F01D1EF
:1034300000260DE06C4E06EB0116365C731EDE179F
:1034400003EB16763611A3EB061C012606FA0CF6E2
:103450003743654E06EB0116365C741EE61704EB27
:1034600016763611DFF878C12CF816705E4E06EB32
:103470000116365C741EE61704EB167600E0A2E037
:1034800036115B4F37F8167001EB410C564E613622
:1034900036F81C604FF0010C0CFA00FC16EA0C0F19
:1034A00001D100260DE0504E06EB0116365C731E6E
:1034B000DE1703EB16763611A3EB061C012606FA7F
:1034C0000CF63743484E06EB0116365C741EE617C1
:1034D00004EB16763611DFF818C12CF81670454B40
:1034E0001B78C3BB404E06EB0116365C741EE61714
:1034F00004EB167636113B4F37F8167001EB410C92
:10350000394E613606EB4C0676884FF0010C0CFA0A
:1035100000FC16EA0C0F01D100260DE0324E06EB3E
:103520000116365C731EDE1703EB16763611A3EB1D
:10353000061C012606FA0CF637432B4E06EB011645
:10354000365C741EE61704EB16763611DFF894C06D
:103550002CF8167037E0FFE7234E06EB0116365CB9
:10356000741EE61704EB167636111E4F37F81670E8
:1035700001EB410C1C4E613606EB4C06B6F804C05C
:10358000012686401CEA060F01D100260DE0164EEA
:1035900006EB0116365C731EDE1703EB167636114A
:1035A000A3EB061C012606FA0CF637430E4E06EB7B
:1035B0000116365C741EE61704EB16763611DFF83A
:1035C00024C02CF81670431CD8B21028FFF613AF95
:1035D0004B1CD9B20629FFF60CAFF0BD9ECE0020E1
:1035E00086CE0020AACE0020DDC00020D4CE002050
:1035F000B6CE002003C000207CB51D48007803280B
:1036000010DB00240BE01B4830F814001A4931F895
:1036100014100843194921F81400601CC4B2062C88
:10362000F1DB17E012480078032813DA00240FE0DA
:10363000134830F814000F4931F8141048400E496F
:1036400031F8141008430D4921F81400601CC4B26D
:10365000062CEDDB0948438902890546CDE90023A4
:10366000EB88AA8869882888FCF770FE7CBD00007A
:103670000CC0002086CE0020AACE002092CE0020D2
:103680009ECE00200146062910D2DFE801F0030596
:1036900007090B0D202070474020FCE78020FAE747
:1036A0000420F8E70820F6E71020F4E70020F2E70E
:1036B0006AA06D490860022008723D2048726BA024
:1036C00048607148C8600020486108616FA0C86107
:1036D0000221654880F82410522180F825106E4997
:1036E00081626EA1016200210163C16272A05E4924
:1036F000886302215C4880F84010672180F84110FF
:103700007049416470A1C1630021C164816475A0E6
:10371000554948650221544880F85C107C2180F8A6
:103720005D107349016673A1816500218166416660
:1037300077A04D49086702214B4880F87810912105
:1037400080F879107549C16775A141670021C0F8FB
:103750008410C0F880107CA04349C1F88C0002217D
:10376000414880F89410A62180F8951079A1C0F8FE
:1037700090100021C0F89810C0F8A010C0F89C105C
:103780007DA03949C1F8A8001521374880F8B0104C
:103790003D2180F8B1107BA1C0F8AC108049C0F881
:1037A000B4100021C0F8BC10C0F8B8107DA02E499C
:1037B000C1F8C40015212C4880F8CC10522180F8A3
:1037C000CD107CA1C0F8C8100021C0F8D010C0F8FE
:1037D000D810C0F8D4107FA02349C1F8E00015210B
:1037E000214880F8E810672180F8E9107DA1C0F831
:1037F000E4100021C0F8EC10C0F8F410C0F8F0108C
:103800007EA01949C1F8FC001521174880F8041161
:103810007C2180F8051167A1C0F800110021C0F8D3
:103820000811C0F81011C0F80C110A20774908706F
:103830000020487076A048600B48C860002088606F
:103840007448086174484861744888617448C86164
:10385000084600690862002048627047B5C6CEBBC2
:10386000B5C6C9AB00000000CCCF0020B8FCB8C47E
:103870004750494FD2FDBDC5D3EBB5C6C9ABB9D88A
:10388000C1AAB9D8CFB50000B8D20020C9C1CBB801
:10389000C9E8D6C300000000DCD10020C9E8D6C3C7
:1038A000B3A3C9C1B5C6C9ABBACDD4CAD0EDC9C1DD
:1038B000CBB8B5C6C9AB0000CAB1B6CEC9E8D6C34D
:1038C0000000000060D10020CCEDBCD3C9BEB3FD28
:1038D000CAB1B6CEBBF2B8FCB8C4CAB1B6CEB2CE8D
:1038E000CAFD0000CFE0CEBBC9E8D6C3000000008F
:1038F000E4D00020CCEDBCD3C9BEB3FDCFE0CEBB3D
:10390000BBF2B8FCB8C4CFE0CEBBB2CECAFD00005B
:10391000CAB1BCE4C9E8D6C30000000058D20020F8
:10392000B8FCB8C4B5B1C7B0CAB1BCE4A1A2B8FC78
:10393000B8C4D6E7D2B9CAB1BCE4BACDD0DDC3DFD2
:10394000CAB1BCE400000000B7BDB0B8D1A1D4F149
:1039500000000000BFC9D1A13136B8F6D2D1D6AA35
:10396000B7BDB0B8BACD34B8F6D7D4B6A8D2E5D082
:10397000DEB8C4B7BDB0B800CAD6B6AFC4A3CABD1E
:1039800000000000CAD6B6AFB5F7CAD4C4A3CABDFA
:10399000A3ACD6BBD4DAB2E2CAD4D3C300000000D1
:1039A0005CD30020CCD8CAE2B9A4D7F7C4A3CABD5F
:1039B00000000000BDABD0DEB8C4B7BDB0B8B4E6FF
:1039C000D6C1D7D4B6A8D2E5D0DEB8C4B7BDB0B89A
:1039D00000000000BDF8C8EBD0DDC3DFC4A3CABD42
:1039E00000000000CAB9D0C5BAC5BBFABDF8C8EB23
:1039F000D0DDC3DFD7B4CCAC00000000B1A3B4E687
:103A0000C9E8D6C3B5BD50524F4D0000A4CF002029
:103A100020000000BD930020118C0020098E0020A2
:103A2000BD8C002025A02949086002200872502082
:103A3000487227A048600020C8602B4848612B4886
:103A400088612BA0C8610221204880F824106421DD
:103A500080F825102AA10162002181622F490163AB
:103A60002F4941632FA0194988630221174880F824
:103A70004010782180F841102DA1C16300214164DC
:103A80003149C16431490165032031490870002082
:103A9000487030A048600D48C8603148886031489F
:103AA000086131484861314888613148C861084639
:103AB000006908620020486270470000CFE0CEBB7A
:103AC000CAB1BCE4D1D3B3A40000000084D3002069
:103AD000CAD6B6AFB5F7D0A3B5B1C7B0CFE0CEBBAD
:103AE000CAB1BCE400000000153D0020413C0020AC
:103AF000D4CBD0D0CBF8B6A8CFE0CEBB000000002E
:103B0000CAD6B6AFD6B8B6A8B5B1C7B0D1ADBBB7F7
:103B1000D4CBD0D0B5C4CFE0CEBB0000F94000205C
:103B2000D13F0020BDBBCDA8B5C6BCECB2E20000C1
:103B3000B5E3C1C1D6B8B6A8D0F2BAC5B5C4BDBB4D
:103B4000CDA8B5C600000000952E00208D2D0020C8
:103B50005CD30020CAD6B6AFC4A3CABD0000000023
:103B6000A4CF002055940020698C0020098E0020ED
:103B7000558D002070B504462F48456A092C3DD26A
:103B8000DFE804F03B1D2C051337381E2D002B48B1
:103B900000785A2808DA29480078062804DD2748E2
:103BA00000780A302549087029E024480078102858
:103BB00004DD224800780A38204908701FE000BF61
:103BC0001E480078632808DA1C480078062804DDBF
:103BD0001A480078401C1949087010E000BF1748C7
:103BE0000078072804DD15480078401E1349087046
:103BF00005E004E00920287001E070BD00BF00BFAF
:103C0000FDF7CAFB2878092812D10B4800690A4938
:103C10000862284605F0D0FA002007494862FDF7FF
:103C200067FC0549886980470349C869804700E007
:103C300000BF00BF00BFE0E75CD300200CC0002045
:103C400070B509210120FCF7F1FA0B4948620846DA
:103C5000446A6CB1002060702070002504E00021EF
:103C6000A01C4155681CC5B2062DF8DB002121724D
:103C7000002000F04FF870BD5CD3002010B5144850
:103C80000478012012490870FDF718FC2723002250
:103C9000EF211046FEF754FB0EA250210220FEF742
:103CA00087FE13A264210220FEF782FE14A278216F
:103CB0000220FEF77DFE06480470154800780128B2
:103CC00005D10348007810B90120FCF7DBFD10BDD9
:103CD00009C00020B5F7D5FBB5B1C7B0CFE0CEBB6A
:103CE000CAB1BCE428362D3939C3EB2900000000E5
:103CF00018193ABCD3BCF5CAB1BCE431C3EB00001F
:103D00001B1A3ABCD3BCF5CAB1BCE43130C3EB00DA
:103D10000BC0002070B505461D48446A20790B2869
:103D200032D2DFE800F00631313131310E151A1E82
:103D30000D00E07A611D00F089FA0620207170BD47
:103D400000BF631D9A1D211D284600F0F7FA1CE0F4
:103D5000FFF794FF08202071F1E72846FFF70AFFDC
:103D600013E00B4800690A490862204605F024FA6E
:103D7000002007494862FDF7BBFB05498869804779
:103D80000349C8698047DAE700BF00BF00BFD6E734
:103D90005CD3002070B50546554806785548446AFE
:103DA000072D78D2DFE805F0761436040C4B73004B
:103DB000607810B90120607001E0002060706BE055
:103DC000607810B90120607001E00020607063E04D
:103DD000607858B9617A48480078401E814205DA17
:103DE000607A401C60720020A07212E060780128A6
:103DF0000FD1A17A607AC0EB0010C0EBC0023E4840
:103E0000BA3010F81200401E814202DAA07A401C3B
:103E1000A07241E0607840B9607A002805DD607AE0
:103E2000401E60720020A07208E06078012805D171
:103E3000A07A002802DDA07A401EA0722CE0607AF1
:103E40002E490870A07A2E4908700021012001F047
:103E500073F82B48017829480078FFF729FA27489A
:103E60000078C0EB0010C0EBC0012348BA3000EB73
:103E70004100401C22490978405C22490870012118
:103E8000084601F059F80C20207005E003E00920F5
:103E9000207001E002E000BF00BF09E020780C289C
:103EA00004D10820207005F0AFF900BF00BF70BD3D
:103EB000FDF772FA20780C2803D113A005F0CCF995
:103EC00000BF00BF01200A490870A27A617A6078B9
:103ED00000F022F8064806700E480078012805D147
:103EE0000348007810B90120FCF7CCFC00BFDEE7E6
:103EF00009C000205CD30020ACC000200EC0002010
:103F00000DC000200CC00020C9E8D6C3B3C9B9A6B3
:103F1000000000000BC000202DE9F04105460E46D0
:103F2000174600244CE0AC4201D1FDF7C5FD264AFE
:103F300002EB44025178244A12F81400FEF718FAF2
:103F400014B1012C34D119E0B020FEF791FC701CA3
:103F50000A2190FBF1F01D4911F800804046FEF760
:103F6000BDFC701C0A2190FBF1F201FB1200174905
:103F700011F800804046FEF7B1FC1AE0B020FEF7D1
:103F800077FC781C0A2190FBF1F0104911F80080B1
:103F90004046FEF7A3FC781C0A2190FBF1F201FBDE
:103FA00012000A4911F800804046FEF797FC00E035
:103FB00000BF00BFAC4201D1FDF7F6FF601CC4B2E8
:103FC000022CB0DBBDE8F081A6A900209CA900204E
:103FD00070B50B210120FCF729F90B49486208460E
:103FE000446A6CB1002020706070002121720025AD
:103FF00004E00021A01C4155681CC5B2062DF8DB69
:10400000002000F079F870BD5CD3002070B5224824
:1040100005782248446A01201F490870FDF74EFACE
:1040200027230022EF211046FEF78AF91CA2502117
:104030000220FEF7BDFC21A264210220FEF7B8FC9D
:1040400022A278210220FEF7B3FC26A28A210C20AE
:10405000FEF7AEFCA27A617A6078FFF75DFF0E484A
:10406000057023480078012805D10B48007810B965
:104070000120FCF707FC0021012000F05DFF01207A
:104080001C49087000210846FFF712F90121084673
:1040900000F052FF70BD000009C000205CD300207A
:1040A000C9E8D6C3B2A2CBF8B6A8D4CBD0D0CAB197
:1040B000B6CEBCB0CFE0CEBB000000001B1A3AD297
:1040C000C6B6AF2018193ABCD3BCF500B5B1C7B01D
:1040D000D1A1D4F13A20CAB1B6CEA1BE2020A1BF51
:1040E00000000000CFE0CEBBA1BE2020A1BF000099
:1040F0000BC0002007C0002070B505463248446A56
:1041000020780D285CD2DFE800F0075B5B5B5B5B2F
:104110000F161C200E5B1B006078A11C00F096F8A7
:104120000620207070BD00BFA31C621C21462846DB
:1041300000F004F945E0FFF769FF08202070F1E77F
:1041400000BF2846FFF726FE3BE01F4800691E49D6
:104150000862204605F030F800201B494862FDF750
:10416000C7F91949886980471749C86980470020FD
:1041700016490870164908701649087002F0DCF9F3
:1041800002F01CFA14480078C0EB0010C0EBC0022B
:10419000124800EB4201D2221148FCF735F81048D2
:1041A000401C0A490978405C0E49087007480178AC
:1041B00009480078FFF77CF800200B490870B1E748
:1041C00000BF00BF00BFADE75CD300200DC00020E2
:1041D00004C0002005C000200EC0002066C10020E1
:1041E000C2CE00200CC0002007C0002000BFFEE7A8
:1041F0002DE9F04105460E466E210B20FEF7B8F87A
:1042000000241CE0AC4212D1FDF756FCB020FEF7B2
:104210002FFB305D0A2190FBF1F201FB12000A49ED
:104220000F5C3846FEF75AFBFDF7BEFE05E0B020F6
:10423000FEF71EFB2A20FEF751FB601CC4B2062CC1
:10424000E0DBBDE8F08100009CA900202DE9F041F1
:1042500005460E4626480778012025490870FDF7D7
:104260002DF926231D22AA216020FEF769F8FDF70B
:10427000FBF827230022EF211046FEF761F81DA26C
:1042800050210220FEF794FB6E210B20FEF770F800
:1042900000241DE0AC4213D1FDF70EFCB020FEF768
:1042A000E7FA305D0A2190FBF1F201FB1200184998
:1042B00011F800804046FEF711FBFDF775FE05E0A2
:1042C000B020FEF7D5FA2A20FEF708FB601CC4B226
:1042D000062CDFDB064807700E480078012805D160
:1042E0000348007810B90120FCF7CCFABDE8F08152
:1042F00009C00020C7EBCAE4C8EBC1F9CEBBC3DCE0
:10430000C2EB3A28B3F5CABCCEAA3029000000009F
:104310009CA900200BC0002000B5FFF783FB00F034
:1043200095FC02F079F8FEF78DFBFCF70DFB00F031
:1043300021FA00F083F9FFF7BBF900BD2DE9F04148
:1043400007460E4614461D464B4890F80080072F3E
:1043500049D2DFE807F0471721040D2B44002078ED
:1043600010B90520207002E02078401E20703BE04C
:104370002078052802D10020207002E02078401C1F
:10438000207031E02078285C092804DA2078285C45
:10439000401C2178685427E02078285C002804DD40
:1043A0002078285C401E217868541DE02878012878
:1043B00012D1687801280FD1A87801280CD1E878AB
:1043C000012809D12879012806D16879012803D16B
:1043D00007203070002401E00A20307004E009203A
:1043E000307001E002E000BF00BF28E030780A280A
:1043F00022D10620307001201F490870FCF7EEFF23
:1044000026231D22AA216020FDF79AFFFDF72CF834
:1044100027230022EF211046FDF792FF164880F86F
:10442000008016480078012805D11348007810B99B
:104430000120FCF727FA00BF00BFBDE8F081FCF7C0
:10444000ABFF30780A2803D10DA004F005FF00E08F
:1044500000BF00BF01200849087020782946FFF7F7
:10446000C7FE00200449087004480078012801D1E3
:10447000FCF708FA00BFE0E709C000200BC00020ED
:10448000C3DCC2EBB4EDCEF30000000070470000C7
:1044900008B500BF012080F3108800BF4FF4A06072
:1044A00000F0B0F800214FF0005000F0B5F8062001
:1044B0008DF8000002208DF8010000208DF8020028
:1044C00001208DF80300684600F05AF81C208DF892
:1044D000000000208DF801008DF8020001208DF809
:1044E0000300684600F04CF836208DF800000120EB
:1044F0008DF8010000208DF8020001208DF80300E6
:10450000684600F03DF803208DF8000000208DF88B
:1045100001008DF8020001208DF80300684600F0CC
:104520002FF800BF1348B0F1807F00D31BE0114883
:10453000401E4FF0E021486100BF4817002805DA0F
:104540000F2000010C490B22885404E00F200001C9
:104550000A494A17885400BF00204FF0E0218861C3
:104560000720086100BF00BF002080F3108800BF53
:1045700008BD00004019010018ED00E000E400E073
:1045800070B5002100230F22C4784CB31A4C246864
:1045900004F4E064C4F5E0644FEA1421C1F10403BB
:1045A00022FA01F2447804FA03F1847804EA02045E
:1045B00044EA01014FEA0111104C0678A155047834
:1045C00004F01F054FF0010404FA05F405784FEAE2
:1045D00065154FF0E02606EB8505C5F8004109E0BA
:1045E000047804F01F050124AC40054D06787611CF
:1045F00045F8264070BD00000CED00E000E400E04E
:1046000080E100E002490143024A11607047000066
:104610000000FA050CED00E0024A0A400243024B9A
:104620001A60704780FFFF1F08ED00E00149086233
:104630007047000000000E427047000025A0284986
:104640000860022008725020487226A048600020AE
:10465000C8602C4848612C4888612CA0C8610221A0
:104660001F4880F82410692180F8251000218162FC
:1046700029A101622D4901632D4941632DA01849EB
:1046800088630221164880F84010822180F841108A
:10469000002141642AA1C1632E49C1642E490165EC
:1046A00003202E4908700020487022A048600C4862
:1046B000C8602B4888602B4808612B4848612B480C
:1046C00088612B48C861084600690862002048627A
:1046D00070470000D0C2D4F6CAB1B6CE00000000C8
:1046E00088D10020D4F6BCD3D2BBB8F6CAB1B6CEBE
:1046F000B2A2C9E8D6C3B8C3CAB1B6CEB2CECAFD5B
:1047000000000000C16E0020556D0020C9BEB3FD41
:10471000CAB1B6CE00000000C9BEB3FDD2BBB8F628
:10472000D2D1D6AACAB1B6CE00000000E57E0020E4
:10473000497D0020CAB1B6CEC9E8D6C3000000004A
:10474000D0DEB8C4D2D1D6AACAB1B6CEB2CECAFDD6
:1047500000000000219C0020E19A002060D1002090
:10476000A4CF002055940020698C0020098E0020E1
:10477000558D002025A0284908600220087250208D
:10478000487226A048600020C8602C4848612C4828
:1047900088612CA0C86102211F4880F8241069217B
:1047A00080F825100021816229A101622D49016351
:1047B0002D4941632DA0184988630221164880F8CD
:1047C0004010822180F84110002141642AA1C16378
:1047D0002E49C1642E49016503202E49087000202E
:1047E00048702DA048600C48C8602E4888602E484C
:1047F00008612E4848612E4888612E48C8610846E5
:10480000006908620020486270470000D4F6BCD3FB
:10481000CFE0CEBB000000000CD10020D4F6BCD30A
:10482000D2BBB8F6CFE0CEBBB2A2C9E8D6C3B8C3FC
:10483000CFE0CEBBB2CECAFD00000000DD75002087
:1048400051740020C9BEB3FDCFE0CEBB0000000014
:10485000C9BEB3FDD2BBB8F6D2D1D6AACFE0CEBB8B
:1048600000000000AD8800209D860020CFE0CEBB78
:10487000C9E8D6C300000000D0DEB8C4CFD6D3D07C
:10488000CFE0CEBBB2CECAFD0000000049A600209A
:104890004DA40020E4D00020CFE0CEBBB2CBB5A524
:1048A00000000000A4CF002055940020698C002057
:1048B000098E0020558D002029B1064AD269024395
:1048C000044BDA6104E0034AD2698243014BDA61A6
:1048D000704700000010024029B1064A12690243E5
:1048E000044B1A6104E0034A12698243014B1A61C6
:1048F000704700000010024029B1064A9269024345
:10490000044B9A6104E0034A92698243014B9A6125
:10491000704700000010024029B1064AD2680243E5
:10492000044BDA6004E0034AD2688243014BDA6048
:104930007047000000100240014908607047000005
:104940004004424210B500F029F84FF4803000F0E6
:10495000DFF800F063F9012C13D14FF4E0112004CB
:1049600000F034F9012000F02BF9022000F04AF9A0
:10497000002000F0C1F8A00200F00AF9002000F0C9
:1049800013F9012144F27D00FFF7B6FF012102482F
:10499000FFF792FF10BD0000110020180F480068BB
:1049A00040F001000D490860084640680C49084085
:1049B0000A494860084600680A49084007490860F3
:1049C0000846006820F4802008600846406820F40B
:1049D000FE0048604FF41F008860704700100240DE
:1049E0000000FFF8FFFFF6FE30B500210022002492
:1049F00000232D4D6D6805F00C0121B1042905D06F
:104A0000082923D105E0294D056022E0274D0560E6
:104A10001FE0254D6D6805F47012234D6D6805F497
:104A20008034022505EB92421CB9214D55430560A7
:104A30000BE01D4D6D6815F4003F03D01C4D554330
:104A4000056002E0194D5543056002E0174D056011
:104A500000BF00BF144D6D6805F0F0010909154D48
:104A60006B5C0568DD4045600F4D6D6805F4E061E5
:104A7000090A104D6B5C4568DD4085600A4D6D6824
:104A800005F46051C90A0B4D6B5C4568DD40C5609B
:104A9000054D6D6805F44041890B074D6B5CC56899
:104AA000B5FBF3F5056130BD0010024000127A003D
:104AB00000093D0060C0002070C0002010B5014614
:104AC0000022002300204A11012A02D1094C236848
:104AD00006E0022A02D1074C236A01E0054C636A12
:104AE00001F01F02012494401C4201D0012000E08B
:104AF000002010BD0010024001460020034A50680B
:104B000020F0F000084350607047000000100240A1
:104B10001149096821F480310F4A11601146096872
:104B200021F480211160B0F5803F03D0B0F5802FD3
:104B30000ED106E00849096841F48031064A116047
:104B400007E00549096841F4A021034A116000E02B
:104B500000BF00BF704700000010024000210A4A59
:104B600011700A4A82F82010012802D0042808D1C6
:104B700003E00121044A117004E00521024A11708A
:104B800000E000BF00BF704720100240001002404C
:104B900001460020034A506820F4E060084350605A
:104BA000704700000010024001460020034A506890
:104BB00020F4605040EAC10050607047001002408D
:104BC000014908667047000000004242024600208A
:104BD000044B586820F47C1042EA01031843014B4F
:104BE000586070470010024001490860704700009B
:104BF0003C0442420249096A0143014A116270477A
:104C00000010024001460020034A506820F00300D3
:104C100008435060704700000010024070B5002447
:104C20000025002600BF3120FFF748FF0646641C20
:104C3000B4F5A06F01D0002EF5D03120FFF73EFF74
:104C400008B1012500E00025284670BD1AA01E49C4
:104C5000086002200872502048721CA048600020A2
:104C6000C8601F4848611F4888611FA0C8610221B1
:104C7000154880F82410642180F825101FA10162D6
:104C800000218162016302202449087000204870DD
:104C900023A048600C48C860244888602448086104
:104CA00024484861244888612448C861084600694E
:104CB0000862002048627047C4DAB2BF525443CA47
:104CC000B1BCE4C9E8D6C30024D30020B5F7D5FBB6
:104CD000B5B1C7B0CAB1D6D3CAB1BCE400000000B8
:104CE0008D4F002069550020B1A3B4E6C9E8D6C3B2
:104CF000D6C1CDE2B2BF525443000000BDABB5B146
:104D0000C7B0CAB1BCE4B1A3B4E6B5BDCDE2B2BF91
:104D1000CAB1D6D3B5E7C2B700000000FCD200206C
:104D200052544320C9E8D6C30000000058D20020E6
:104D300055940020698C0020098E0020558D00209C
:104D4000054909886FEA000292B201EA0201034AAA
:104D5000A2F804187047000004280040002000401A
:104D600000B587B00120FFF761FCFBF7E5FA0120F1
:104D7000FFF7F4FE00BF4120FFF7A0FE0028FAD0A5
:104D80004FF48070FFF736FF0120FFF72DFF00F092
:104D90004FFD00F043FD1C220C496846FBF734FA36
:104DA0000A4810380FC801F061FC00F037FD0121FE
:104DB000032000F0C1F800F031FD47F6FF7000F06D
:104DC0001BFD00F02BFD07B000BD000090C00020CF
:104DD0000348008840F010000249A1F80408704719
:104DE0000428004000200040044800884FF6EF717E
:104DF00000EA01000249A1F80408704704280040B5
:104E0000002000400021044801880448B0F8180838
:104E100041EA0040704700001C280040002000408C
:104E200001460020034A12880A4201D0012000E016
:104E3000002070470428004010B50120FFF7F0FF64
:104E400001285CD10121800701F0D4F80120FFF78F
:104E500077FF01202F49087001F06AFB04460146E4
:104E60002D4801F055FB01212C48FBF742FF01289A
:104E700001D0012000E00020C4B2224601212748D1
:104E8000FBF746FF26480078012814D12548007812
:104E900088B92548007870B9FEF7AEFB2348007842
:104EA00028B92348007810B9FDF7AEFA26E00120B2
:104EB0002049087022E01B48007801280ED1FEF737
:104EC0009BFB1A48007828B91948007810B9FDF7FB
:104ED0009BFA13E00120174908700FE01248007890
:104EE00001280BD11148007828B91148007810B971
:104EF000FDF78AFA02E001200E49087010BD022079
:104F0000FFF78EFF012802D10220FFF719FF00BF33
:104F1000F4E7000000C0002080C00020000801402D
:104F200006C0002007C0002008C0002009C00020E3
:104F30000AC000200BC0002039B1094A128842EA99
:104F40000002084BA3F8002809E0054A12886FEA1E
:104F500000039BB202EA0302024BA3F80028704749
:104F6000002800400020004000B50246FFF730FF57
:104F7000100C044908800449A1F81C28FFF734FFED
:104F800000BD0000182800400020004070B588B027
:104F90000546FF480678FF48446A072D78D2DFE8C7
:104FA00005F0FE18FD040EFCFB006078022802D11B
:104FB0000D20607002E06078401E607099E26078B9
:104FC0000D2802D10220607002E06078401C607001
:104FD0008FE26078801E0C287ED2DFE800F0063178
:104FE0005D6CA9F6E6E5E4E3E2E140F2EC71A0696C
:104FF000884224DAA0690A30A061606901281ED1C4
:1050000020691D281BDBA069C11700EB9171891075
:10501000B0EB810106D16422A16991FBF2F302FB9E
:10502000131139B94FF4C872A16991FBF2F302FB75
:10503000131111B91D21216101E01C21216131E110
:1050400040F2F571A069884225DAA069401CA06190
:10505000606901281FD120691D281CDBA069C117C8
:1050600000EB91718910B0EB810106D16422A16936
:1050700091FBF2F302FB131139B94FF4C872A16925
:1050800091FBF2F302FB131119B91D21216102E01A
:105090002EE21C21216105E1606902280ADA6069BB
:1050A0000A30606120691F2804D160690B2801D192
:1050B0001E212161F6E060690B2838DA6069401C26
:1050C0006061606903280AD06069052807D06069BB
:1050D000082804D0606900E0E3E00A2805D12069CF
:1050E0001F2824D11E21216121E0606901281ED1E1
:1050F00020691C281BDDA069C11700EB9171891084
:10510000B0EB810106D16422A16991FBF2F302FBAD
:10511000131139B94FF4C872A16991FBF2F302FB84
:10512000131111B91D21216101E01C212161B9E098
:105130006069032808D06069052805D060690828DF
:1051400002D060690A2806D1206915283CDA206956
:105150000A30206138E0606901282FD1A069C117A9
:1051600000EB91718910B0EB810106D16422A16935
:1051700091FBF2F302FB131139B94FF4C872A16924
:1051800091FBF2F302FB131189B9206914281BDA91
:1051900020690A30206117E0A5E18DE184E0A5E1F6
:1051A00078E070E068E060E058E050E00DE02069F1
:1051B000132809DA20690A30206105E020691628E1
:1051C00002DA20690A3020616CE06069032808D0A7
:1051D0006069052805D06069082802D060690A283E
:1051E00006D120691E2831DA2069401C20612DE09B
:1051F0006069012824D1A069C11700EB9171891061
:10520000B0EB810106D16422A16991FBF2F302FBAC
:10521000131139B94FF4C872A16991FBF2F302FB83
:10522000131131B920691D2810DA2069401C206152
:105230000CE020691C2809DA2069401C206105E087
:1052400020691F2802DA2069401C20612AE0E068FA
:105250000E2802DAE0680A30E06023E0E0681728F0
:1052600002DAE068401CE0601CE0A068322802DA44
:10527000A0680A30A06015E0A0683B2802DAA068A8
:10528000401CA0600EE06068322802DA60680A30D4
:10529000606007E060683B2802DA6068401C60607C
:1052A00000E000BF00BF24E16078801E0C286ED2B1
:1052B000DFE800F006315B8AC5CCD3DAE1E8F1F82B
:1052C00040F2D971A069884224DDA0690A38A06142
:1052D000606901281ED120691D281BDBA069C11748
:1052E00000EB91718910B0EB810106D16422A169B4
:1052F00091FBF2F302FB131139B94FF4C872A169A3
:1053000091FBF2F302FB131111B91D21216101E0A0
:105310001C212161CEE0A069B0F5FA6F24DDA069FF
:10532000401EA061606901281ED120691D281BDB79
:10533000A069C11700EB91718910B0EB810106D112
:105340006422A16991FBF2F302FB131139B94FF406
:10535000C872A16991FBF2F302FB131111B91D216F
:10536000216101E01C212161A4E0606909282ADD96
:1053700060690A3860616069012824D120691D28AC
:1053800021DBA069C11700EB9171891004E090E066
:1053900009C00020FCD20020B0EB810106D16422BC
:1053A000A16991FBF2F302FB131139B94FF4C872F2
:1053B000A16991FBF2F302FB131111B91D212161C7
:1053C00001E01C21216175E06069002836DD60691B
:1053D000401E60616069032808D06069052805D017
:1053E0006069082802D060690A2805D120691F2851
:1053F00024D11E21216121E0606901281ED120698C
:105400001C281BDDA069C11700EB91718910B0EB5E
:10541000810106D16422A16991FBF2F302FB131111
:1054200039B94FF4C872A16991FBF2F302FB131171
:1054300011B91D21216101E01C2121613AE020699F
:105440000A2802DD20690A38206133E0206901283A
:1054500002DD2069401E20612CE0E068092802DDA1
:10546000E0680A38E06025E0E068002802DDE068D6
:10547000401EE0601EE0A068092802DDA0680A382E
:10548000A06017E0A068002802DAA068401EA060B3
:1054900010E007E0FFE76068092802DD60680A386D
:1054A000606007E06068002802DD6068401E6060A0
:1054B00000E000BF00BF1CE000F0B0F900210120B7
:1054C000FFF73AFD1C2204F114016846FAF79CFE2E
:1054D000201D0FC801F0CAF801210846FFF72CFD76
:1054E0000120207005E00120207002E008B070BDAE
:1054F00000BF00BFFBF750FF2078012812D11748EA
:10550000006916490862204603F056FE0020134940
:105510004862FBF7EDFF1149886980470F49C86968
:105520008047E3E701200E490870202204F11001B2
:105530006846FAF769FE6078211D0EC900F09CF8F4
:105540000748067007480078012805D1044800780C
:1055500010B90120FBF796F900BFC7E7FCD2002085
:1055600009C000200BC0002030B589B02B48057859
:1055700030210120FAF75AFE294948620846446A58
:10558000406AF0B3002020700220607040F2DC71AD
:10559000A16107216161122121610C21E1600021DB
:1055A000A1600020606001201C490870FBF779FFB2
:1055B0001CA250210220FDF7FBF922A27821022033
:1055C000FDF7F6F923A296210220FDF7F1F925A2B5
:1055D000C8210220FDF7ECF927230022EF21104615
:1055E000FCF7AEFE202204F110016846FAF70CFE2B
:1055F0006078211D0EC900F03FF8084805701D486D
:1056000000E008E00078012805D10448007810B9CE
:105610000120FBF737F909B030BD000009C00020B8
:10562000FCD20020B5B1B9E2B1EAD6C3D3DAB8F6FC
:10563000CEBBCAB1BCD331A3ACCAAECEBBCAB1BC1F
:10564000D3313000C8D5C6DA3A323020202D2020A0
:105650002D202000CAB1BCE43A202020203A20208E
:105660003A2020001B1A3AD2C6B6AF2018193ABC0D
:10567000D3BCF5000BC000200FB470B50546022462
:10568000AFE0AC4201D1FCF717FAA21E584B03EB76
:1056900042025178A21E13F81200FCF769FEB020F6
:1056A000FDF7E6F8A01E0C2870D2DFE800F0061522
:1056B000212C39434F5965707C8664210A9890FBF0
:1056C000F1F201FB12000A2190FBF1F049490E5C56
:1056D0003046FDF703F97DE00A210A9890FBF1F2CC
:1056E00001FB120043490E5C3046FDF7F7F871E00C
:1056F0000998401C0A2190FBF1F03E490E5C3046AF
:10570000FDF7ECF866E00998401C0A2190FBF1F2E5
:1057100001FB120037490E5C3046FDF7DFF859E017
:105720000A21089890FBF1F032490E5C3046FDF7F3
:10573000D5F84FE00A21089890FBF1F201FB120026
:105740002C490E5C3046FDF7C9F843E00A21079862
:1057500090FBF1F027490E5C3046FDF7BFF839E0C9
:105760000A21079890FBF1F201FB120021490E5C1F
:105770003046FDF7B3F82DE00A21069890FBF1F0D2
:105780001C490E5C3046FDF7A9F823E021E00A2110
:10579000069890FBF1F201FB120016490E5C3046B0
:1057A000FDF79CF816E00A21059890FBF1F01149ED
:1057B0000E5C3046FDF792F80CE00A21059890FB4C
:1057C000F1F201FB12000B490E5C3046FDF786F842
:1057D00000E000BF00BFAC4201D1FCF7E5FB601C5C
:1057E000C4B20E2CFFF64DAF70BC5DF814FB000088
:1057F000AAA900209CA9002000B50246FFF7E8FAFC
:10580000C2F30340034908800349A1F80C28FFF7BD
:10581000EBFA00BD082800400020004000BF03480C
:10582000008810F0200FFAD07047000004280040D4
:10583000074800884FF6F77100EA01000549A1F812
:10584000040800BF0248008810F0080FFAD0704723
:105850000428004000200040704710B500F002F816
:1058600010BD0000002100202E4A126842F4803250
:105870002C4B1A6000BF2B4A126802F40030491CFE
:1058800010B9B1F5A06FF6D1264A126812F4003FA4
:1058900001D0012000E00020012842D1224A1268F4
:1058A00042F01002204B1A601A46126822F00302DE
:1058B0001A601A46126842F002021A60194A5268C7
:1058C000184B5A601A4652685A601A46526842F497
:1058D00080625A601A46526822F47C125A601A4654
:1058E000526842F4E8125A601A46126842F0807216
:1058F0001A6000BF0B4A126812F0007FFAD0094A02
:10590000526822F00302074B5A601A46526842F06E
:1059100002025A6000BF034A526802F00C02082AD1
:10592000F9D1704700100240002002402DE9F041FB
:1059300006464648446A0C2E64D2DFE806F0621937
:1059400034060F635F636363634E207810B91020E1
:10595000207002E02078401E207054E0207810284B
:1059600002D10020207002E02078401C20704AE024
:10597000207810280DD06178A01C30F81100227812
:1059800001219140484081B26278A01C20F8121099
:1059900008E06078052802D10020607002E060789D
:1059A000401C60702FE0207810280DD06178A01C7A
:1059B00030F81100227801219140484081B262788C
:1059C000A01C20F8121007E0607810B90520607064
:1059D00002E06078401E607015E0002509E0A01C20
:1059E00030F8151005EB4502194820F81210681C14
:1059F000C5B2062DF3DB0120A07304E00920A073DB
:105A000001E002E000BF00BF0BE0A07B082800D14E
:105A100004E003F0F9FB0820A07300BF00BFBDE85D
:105A2000F081FBF7B9FCA07B012803D109A003F0AA
:105A300013FC00BF00BF00BF6778A31C33F817201A
:105A40003946207803F056FB00BFE8E7DCD10020A0
:105A50003EC10020B1A3B4E6B3C9B9A6000000005E
:105A600010B52D48047801202B490870FBF719FD6B
:105A700027230022EF211046FCF762FC27A24B21CE
:105A80000220FCF795FF28A25D210C20FCF790FF77
:105A900028A26F210520FCF78BFF2BA28121052076
:105AA000FCF786FF2DA293210520FCF781FF30A291
:105AB000A5210520FCF77CFF32A2B7210520FCF7C9
:105AC00077FF35A2C9210520FCF772FF37A2882194
:105AD0001D20FCF76DFF38A29C211D20FCF768FFFC
