:020000040800F2
:1000000028D80020450100081D550008511E000891
:10001000795200084D0A0008A57900080000000088
:10002000000000000000000000000000096A000855
:10003000B514000800000000E15600089D6D00089E
:100040005F0100085F0100085F010008ED5E000825
:100050005F0100085F010008B91400087915000865
:100060005F0100085F0100085F0100085F010008F0
:100070005F0100085F0100085F0100085F010008E0
:100080005F0100085F0100085F0100085F010008D0
:100090005F0100085F0100085F0100085F010008C0
:1000A0005F0100085F0100085F0100085F010008B0
:1000B000296E00085F0100085F0100085F01000869
:1000C0005F0100085F0100085F0100085F01000890
:1000D0005F0100085F0100085F0100085F01000880
:1000E0005F0100085F0100085F0100085F01000870
:1000F0005F0100085F0100085F0100085F01000860
:100100005F0100085F0100085F0100085F0100084F
:100110005F0100085F010008556F00085F010008DB
:100120005F0100085F0100085F0100085F0100082F
:10013000DFF80CD000F082FA00480047F5CA00084A
:1001400028D800200648804706480047FEE7FEE71B
:10015000FEE7FEE7FEE7FEE7FEE7FEE7FEE7FEE777
:10016000C96D00083101000838B5D0E90221491EE7
:1001700001EB410102EBC1014268C1EB011102EB4D
:1001800081010268C1EB011102EB8103D0E9042176
:1001900001EB410102EB8101A1F55271302491FB89
:1001A000F4F2154D04FB1211554303EBC5130093F4
:1001B0001A2902DB114A1A4400920C2391FBF3F234
:1001C0000F4C009D544303FB121105EBC4140D4A60
:1001D000009408E0491E40F2A324535C6343009C52
:1001E00004EBC31300930029F4DC0146684600F0D9
:1001F0009FF9009838BD00003F0C0F0080510100AE
:1002000067C203000C3C010840EA01039B0703D0CE
:1002100009E008C9121F08C0042AFAD203E011F845
:10022000013B00F8013B521EF9D27047D2B201E007
:1002300000F8012B491EFBD270470022F6E710B5EB
:1002400004460846114602462046FFF7EFFF2046C7
:1002500010BD0146002000E0401C0A5C002AFBD1D2
:10026000704730B504460020034600E05B1C934213
:1002700003D2E05CCD5C401BF8D030BD10B54843E4
:1002800004460CF095FC002805D00021002C02D07B
:10029000641E0155FAE710BD0FB400B58DB010A96A
:1002A00009900B9000914FF0FF300A9000200C90C5
:1002B00005480690054807906A4609A80F9900F07E
:1002C0008DF90DB05DF814FBFD0500081B06000854
:1002D0002DE9FF5FD3E901464FF0FF3B91461D46F4
:1002E0005F464FF00008A9697F1C01988847296A7A
:1002F000824688470028F6D11AF101000CD024F478
:10030000C064002E19DD600614D5BAF12B0F09D098
:10031000BAF12D0F0ED103E0584604B0BDE8F09FAE
:1003200044F48064A9697F1C01988847761E824640
:10033000002E02DDBAF1300F03D0B9F1000F26D044
:1003400032E0761EA96944F400747F1C0198884746
:100350008246002E05DDBAF1780F06D0BAF1580FAB
:1003600003D0B9F1000F10D01EE0B9F1000F02D098
:10037000B9F1100F18D1761EA96924F400747F1CFE
:10038000019888478246102002E0082000E00A20F9
:10039000814609E008FB0908761EA96944F4007447
:1003A0007F1C019888478246002E05DD494650464D
:1003B00000F0FEF80028EDDAE96901988847A00509
:1003C00002D46FF00100A8E7E00726D1600613D53C
:1003D000C8F10000610500D44046296801F104021B
:1003E0002A600968220501D5087016E0220701D5A8
:1003F000088012E0086010E0286800F1040129601C
:100400000068210502D580F8008006E0210702D5AA
:10041000A0F8008001E0C0F8008038467DE72DE9B3
:10042000FF5FD2E901B80027916914469946DDF8CB
:1004300038A03E4601988847054659EA0A0005D08B
:1004400009E0A169761C019888470546216A28467B
:1004500088470028F5D1681C03D05FEACB7005D02F
:1004600015E04FF0FF3004B0BDE8F09F2068011D9B
:10047000216007680BE05FEACB7001D107F8015BF0
:10048000A169A8F10108761C019888470546B8F1D2
:10049000000F1ADD681C18D0B9F1000F0DD0E81755
:1004A00005EBD060421120F01F0059F822102A1AE3
:1004B000012090400142DED107E0BAF1000FDAD10D
:1004C000216A284688470028D5D0E16901988847E5
:1004D0000BF0010050EA0A0000D13870A2686FF0FA
:1004E00001004245BFDDBAF1000F02D0B8F1000FA4
:1004F000B9D13046B7E730B50B460146002020227F
:10050000012409E021FA02F59D4205D303FA02F520
:10051000491B04FA02F52844151EA2F10102F1DC80
:1005200030BD0000014900F003B80000FC97002036
:1005300030B50246084613683C22B3FBF2F102FBD9
:1005400011330360B1FBF2F302FB13111824416075
:10055000B3FBF4F104FB113282600A1D0723B2FBE6
:10056000F3F403FB1422890001F66C3140F2B55517
:10057000B1FBF5F405FB1411826104F14402890812
:100580004261C1613B2902D3920700D0491C00227D
:10059000064C13460261E25C8A4203D8891A5B1C4E
:1005A0000361F8E7491CC16030BD0000183C010838
:1005B0003A2800D2303820F02002412A01D3A2F19B
:1005C00037004FF0FF32884200D202461046704793
:1005D0000268114413780160184670470B461146B3
:1005E000044A4A61044A0A620022C1E9033200F067
:1005F0003DB80000D105000861060008426842B11C
:10060000016811F8013B23B1521EC0E900121846DF
:1006100070470121C160881E7047416859B1C368A5
:10062000026843B98368934205D0521E491CC0E951
:100630000021002070474FF0FF307047064C074DF7
:1006400006E0E06840F0010394E8070098471034A2
:10065000AC42F6D3FFF770FDFC3C01081C3D0108DD
:100660004FF4F051C0B200F09DB900002DE9F34FF6
:100670008BB0012081460A904FF0000801F10C0078
:100680000C4646460DF1080A019062690121019865
:10069000904705002DD0252D2CD0216A8847C0B168
:1006A0006269012101989047216A88470028F7D1A3
:1006B000411E62690198904700E0761CA1690B9881
:1006C0008847216A88470028F7D1E1690B98884755
:1006D000DBE7A1690B9888470746A84201D1761C41
:1006E000D3E7E1690B9888477F1C02D1B8F1000F6E
:1006F00072D016E1002762693D463946019890475D
:100700002A2804D162690121019890470125DFF868
:1007100090B26269012101989047A0F130020A2A43
:100720000DD2B9F1000F0AD05F4578DC07EB8701E5
:1007300000EB4107303F72D445F01005E9E7E906C8
:1007400001D46FF000476C280AD04C2814D06828D8
:1007500015D06A280DD074281CD07A281AD01DE034
:1007600062690121019890476C2802D045F0040588
:1007700014E045F002050DE045F020050AE062694D
:10078000012101989047682802D045F0080505E04E
:1007900045F400656269012101989047C4E9015759
:1007A000652842D019DC58287ED00CDC45283CD086
:1007B00004DC252826D0412831D136E0462834D023
:1007C00047282CD131E05B287BD061282DD06328CD
:1007D00077D0642823D15EE022E06F284CD008DC7B
:1007E000662822D0672820D0692826D06E2816D106
:1007F0002CE0702849D073286CD075284BD078280D
:100800000DD151E0A1690B988847054625283FF492
:1008100066AFE1690B9888476D1C3FF467AF80E0D5
:100820004FF0FF300DB0BDE8F08F23466A466FF001
:1008300001000B99AFF300809EE045F0400060603E
:10084000A80723464FF0000235D43DE0206800F1B0
:10085000040121600068290501D5067015E7290704
:1008600001D5068011E7A90704D54FEAE671C0E972
:1008700000610AE7066008E745F040006060A807ED
:1008800023464FF0080216D41EE040F60E0125EA7A
:100890000100606016E045F040006060A807234654
:1008A0004FF00A0207D40FE045F040006060A8074F
:1008B00008D5234610226FF001000B99AFF300809A
:1008C0005AE007E0234610226FF001000B99FFF772
:1008D000FFFC51E00027BB463946632802D05B2865
:1008E00007D040E0E80601D4C4F808904FF0010BAF
:1008F00039E062690121019890475E2804D10127FF
:100900006269394601989047216931B900235246FE
:1009100042F82130491C0829FADB10B1216911B1D4
:100920000FE040467EE7C11700EBD1635A110AEB96
:10093000820123F01F03C31A0A6809FA03F0024375
:100940000A6062690121019890475D28E5D14FB1A5
:100950000020514651F82020D24341F82020401C6D
:100960000828F7DB02A90B462246CDF800B06FF04D
:1009700001000B99FFF753FD002808DA4FF0FF3113
:10098000401C01D10A9800B9414608464AE7E907E8
:1009900001D108F10108064400200A9075E6000024
:1009A000CCCCCC0C7F2801D9002208E0064A02EB0F
:1009B0005002C007127800D1120902F00F02012084
:1009C0009040084070470000243C010870B501EBDE
:1009D000020410F8015B15F0070301D110F8013B88
:1009E0002A1106D110F8012B03E010F8016B01F871
:1009F000016B5B1EF9D12B0705D40023521E0FD4C7
:100A000001F8013BFAE710F8013B02F10202A1EB09
:100A1000030303E013F8015B01F8015B521EF9D5F3
:100A2000A142D6D3002070BD1CB5002300931A4606
:100A300019461846019300F00BF81CBD10B50120B3
:100A400004F0CEFF002004F0CBFF10BD00BFFEE796
:100A50002DE9F04704460F4615461E46DDE9088994
:100A60004FF6FF714D4801F089F821464B4801F0DF
:100A700083F80A2009F0F2F92021494801F07EF8B4
:100A80000A2009F0EBF92021454801F075F80A2009
:100A900009F0E4F94FF6FF71404801F06FF839466C
:100AA0003E4801F069F80A2009F0D8F940213C4895
:100AB00001F064F80A2009F0D1F94021384801F02A
:100AC0005BF80A2009F0CAF94FF6FF71334801F0CC
:100AD00055F82946314801F04FF80A2009F0BEF9CF
:100AE00080212F4801F04AF80A2009F0B7F9802147
:100AF0002B4801F041F80A2009F0B0F94FF6FF71D8
:100B0000264801F03BF83146244801F035F80A2028
:100B100009F0A4F90421224801F030F80A2009F074
:100B20009DF904211E4801F027F80A2009F096F9E2
:100B30004FF6FF71194801F021F84146174801F0BE
:100B40001BF80A2009F08AF90821154801F016F867
:100B5000142009F083F90821114801F00DF80A204A
:100B600009F07CF94FF6FF710C4801F007F849468F
:100B70000A4801F001F80A2009F070F9102108482C
:100B800000F0FCFF142009F069F91021044800F07E
:100B9000F3FF0A2009F062F9BDE8F0870014014074
:100BA000001001402DE9F84306468846B8F1400F91
:100BB00005D1C02040EA4600401CC7B204E08020B6
:100BC00040EA4600401CC7B24FF48051424800F052
:100BD000D3FF012009F04EF94FF400513E4800F0D8
:100BE000CBFF012009F046F94FF480513A4800F05C
:100BF000C5FF002421E047FA04F010F0010F05D0F2
:100C00004FF40041344800F0B9FF04E04FF40041D4
:100C1000314800F0B1FF012009F02CF94FF40051E8
:100C20002D4800F0ABFF012009F024F94FF40051EA
:100C3000294800F0A1FF601CC4B2082CDBDB4FF494
:100C40000040ADF8000001208DF8020004208DF86E
:100C500003006946204800F0B3FE0025002420E090
:100C6000012009F007F94FF400411B4800F06EFF26
:100C7000012803D1802040EA650500E06D100120C5
:100C800009F0F8F84FF40051134800F077FF012005
:100C900009F0F0F84FF400510F4800F06DFF601CB0
:100CA000C4B2082CDCDB012009F0E4F84FF48051D9
:100CB000094800F061FF4FF40040ADF8000001204A
:100CC0008DF8020010208DF803006946024800F0FC
:100CD00077FE2846BDE8F883000C014010B5BF211F
:100CE0000320FFF75FFF044604F03000C01004F05B
:100CF000300100EB610004F00F014418204610BDE4
:100D000010B5BF210220FFF74DFF044614F0800FFD
:100D10000AD004F01000C01004F0100100EB6100D4
:100D200004F00F01441809E004F03000C01004F092
:100D3000300100EB610004F00F014418204610BDA3
:100D400010B5BF210120FFF72DFF044604F00F006E
:100D500004F0700100EBE10004F0700100EB6104AD
:100D6000204610BD10B5BF210420FFF71BFF04462D
:100D700004F01000C01004F0100100EB610004F05A
:100D80000F014418204610BD10B5BF210020FFF709
:100D900009FF044604F00F0004F0700100EBE100CD
:100DA00004F0700100EB6104204610BD10B5BF21B6
:100DB0000620FFF7F7FE044604F0F000C01004F030
:100DC000F00100EB610004F00F010844C4B22046BA
:100DD00010BD70B504460CB11F2C00DD01240A20A3
:100DE00094FBF0F100FB11400A2194FBF1F140EA81
:100DF0000110C5B2BF222946032000F0A1F870BD42
:100E000070B504460E46012E28D1182C01DDA1250F
:100E100033E00C2C11DDA4F10C000A2190FBF1F061
:100E2000A02141EA0010A4F10C010A2291FBF2F387
:100E300002FB13110843C5B21FE0002C0CDD0A2091
:100E400094FBF0F040F080000A2194FBF1F201FBEA
:100E500012410843C5B210E081250EE0172C01DDD8
:100E600000250AE00A2094FBF0F100FB11400A2162
:100E700094FBF1F140EA0110C5B2BF2229460220DD
:100E800000F05EF870BD70B504460CB13B2C00DD7F
:100E900001240A2094FBF0F100FB11400A2194FB8D
:100EA000F1F140EA0110C5B2BF222946012000F04D
:100EB00047F870BD70B504460CB10C2C00DD012460
:100EC0000A2094FBF0F100FB11400A2194FBF1F1A0
:100ED00040EA0110C5B2BF222946042000F030F8D4
:100EE00070BD70B504460E463B2C00DD00240A2080
:100EF00094FBF0F100FB11400A2194FBF1F140EA70
:100F00000110C5B2012E01D145F08005BF2229464E
:100F1000002000F015F870BD70B504460A2094FB5F
:100F2000F0F100FB11400A2194FBF1F140EA0110BD
:100F3000C5B2BF222946062000F002F870BD0000AD
:100F40002DE9F04106460F469046B8F1400F05D115
:100F5000FE2000EA460040F0C00506E0FE2000EA60
:100F6000460000F0BF0040F080054FF48051344847
:100F700000F002FE012008F07DFF4FF400513048E0
:100F800000F0FAFD012008F075FF4FF480512C4865
:100F900000F0F4FD002421E045FA04F010F0010F08
:100FA00005D04FF40041264800F0E8FD04E04FF47E
:100FB0000041234800F0E0FD012008F05BFF4FF402
:100FC00000511F4800F0DAFD012008F053FF4FF4F4
:100FD00000511B4800F0D0FD601CC4B2082CDBDBC4
:100FE000002421E047FA04F010F0010F05D04FF47F
:100FF0000041134800F0C2FD04E04FF400411048E6
:1010000000F0BAFD012008F035FF4FF400510C4804
:1010100000F0B4FD012008F02DFF4FF40051084806
:1010200000F0AAFD601CC4B2082CDBDB012008F034
:1010300021FF4FF48051024800F09EFDBDE8F08191
:10104000000C01402DE9F0410546A4480678A4486B
:10105000446A092D72D2DFE805F0EF1883050EF01F
:10106000ED4DB800207910B90520207102E02079FB
:10107000401E207101E12079052802D10020207155
:1010800002E02079401C2071F7E0207906282ED25A
:10109000DFE800F0030A11181F2660780E2802DA34
:1010A00060780A30607023E06078172802DA607890
:1010B000401C60701CE0A078322802DAA0780A3068
:1010C000A07015E0A0783B2802DAA078401CA07040
:1010D0000EE0E078322802DAE0780A30E07007E0CB
:1010E000E0783B2802DAE078401CE07000E000BFC6
:1010F00000BFC2E0207906282FD2DFE800F0030A03
:101100001118202760780E2802DA60780A306070A3
:1011100024E06078172802DA6078401C60701DE0D7
:10112000A078322802DAA0780A30A07016E0A07801
:101130003B2802DAA078401CA0700FE09CE0E07829
:10114000322802DAE0780A30E07007E0E0783B28E5
:1011500002DAE078401CE07000E000BF00BF8CE0E5
:10116000207906282ED2DFE800F0030A11181F2686
:101170006078092802DD60780A38607023E06078C2
:10118000002802DD6078401E60701CE0A07809280D
:1011900002DDA0780A38A07015E0A078002802DDF2
:1011A000A078401EA0700EE0E078092802DDE0780B
:1011B0000A38E07007E0E078002802DDE078401EA1
:1011C000E07000E000BF00BF57E0207906282ED273
:1011D000DFE800F0030A11181F266078092802DDF5
:1011E00060780A38607023E06078002802DD60785B
:1011F000401E60701CE0A078092802DDA0780A3843
:10120000A07015E0A078002802DDA078401EA07034
:101210000EE0E078092802DDE0780A38E07007E0A7
:10122000E078002802DDE078401EE07000E000BFBA
:1012300000BF22E01BE000E01CE005F049FB0021BC
:10124000012004F0D3FE6078264981F8B600A17829
:10125000244880F8B710E17880F8B81005F038FB22
:101260000121084604F0C2FE0120207005E00120A3
:10127000207002E0BDE8F08100BF00BF00F0B4FFC5
:101280002078012812D116480069154908622046C5
:101290000AF070FA00201449486201F051F8104930
:1012A000886980470E49C8698047E3E701200B49F8
:1012B0000870E378A2786178207900F089F807480F
:1012C00006700A480078012805D10448007810B952
:1012D000022000F085F900BFCCE70000D500002017
:1012E000089600205C840020E4960020D7000020AF
:1012F00070B52448057805210120FEF7BFFF22497B
:1013000048620846446ADCB3002020701F4890F809
:10131000B60060701D4890F8B700A0701B4890F8A8
:10132000B800E0700020207101201649087000F01C
:10133000E0FF17A25021022002F0EEFA1CA2822147
:101340000A2002F0E9FA1DA2C821022002F0E4FA04
:1013500027230022EF21104601F0A6FFE378A278B0
:101360006178207900F034F8064805701748007855
:10137000012805D10348007810B9022000F030F9A7
:1013800070BD0000D5000020089600205C8400207D
:10139000B5B1B9E2B1EAD6C3D3DAB8F6CEBBCAB1B9
:1013A000BCD331A3ACCAAECEBBCAB1BCD3313000C2
:1013B00020203A20203A2020000000001B1A3AD2B8
:1013C000C6B6AF2018193ABCD3BCF500D700002030
:1013D0002DE9F04705460E4617469846002460E082
:1013E000AC4201D101F092FA304A02EB440251784A
:1013F0002E4A12F8140001F06FFFB02002F0ECF951
:10140000062C46D2DFE804F0030D19232F390A20F9
:1014100096FBF0F0264911F80090484602F012FAC7
:1014200038E00A2096FBF0F100FB1160204911F82A
:101430000090484602F006FA2CE00A2097FBF0F0F4
:101440001B4911F80090484602F0FCF922E00A20FE
:1014500097FBF0F100FB1170154911F80090484618
:1014600002F0F0F916E00A2098FBF0F0104911F8AC
:101470000090484602F0E6F90CE00A2098FBF0F1F3
:1014800000FB11800A4911F80090484602F0DAF991
:1014900000E000BF00BFAC4201D101F039FD601C8B
:1014A000C4B2062C9CDBBDE8F08700008A3B010833
:1014B000643B01087047000010B500241C2009F0AF
:1014C0004FFA0446012000F097F878B314F0400F6B
:1014D00006D001201649087016A006F0C9FA22E0CD
:1014E00014F0010F06D001201149087013A006F076
:1014F000BFFA18E014F0100F15D012A006F0B8FAD9
:10150000132009F0F2F910F0140F0CD0112009F09B
:10151000ECF910F4806F03D00FA006F0A9FA02E0F6
:1015200011A006F0A5FA012000F036F810BD000069
:10153000B8000020504B5449460A0000525845520A
:1015400049460A006C696E6B207374617465206390
:1015500068616E6765640A006C696E6B2061637414
:1015600069766174650A00006C696E6B20696E763D
:10157000616C69640A00000010B506480078012813
:1015800004D100200349087001F0F2FE022000F0AF
:1015900003F810BDD7000020014908607047000023
:1015A000140401401CB50220009000208DF80400B6
:1015B0000C208DF8050001208DF80600684600F02B
:1015C00031F80120009000208DF804000C208DF8E7
:1015D000050001208DF80600684600F023F81CBDC8
:1015E0000349096841EA0001024AC2F81014704731
:1015F0001004014000000140014600200022074B7A
:101600001B6803EA0102064BD3F814340B4202D0E4
:101610000AB1012000E000207047000000040140F2
:1016200000000140002127498279DAB3264AD2F826
:10163000002403689A43244BC3F800241A46D2F8C6
:10164000042403689A4301F104031A6002791144E7
:101650000A68036842EA03020A601B4AD2F80824B7
:10166000036822EA0302184BC3F808241A46D2F88A
:101670000C24036822EA0302144B1A604279102AF0
:1016800011D1114AD2F8082403681A430E4BC3F84B
:1016900008241A46D2F80C2403681A430A4BC3F8EC
:1016A0000C240EE007E00749427911440A680368F8
:1016B0001A430A6005E0027911440A6803689A43F4
:1016C0000A60704700040140000001400C04014022
:1016D00025A0294908600220087250204872002085
:1016E000C86026A048602A4848612A4888612AA024
:1016F000C8610221204880F824106E2180F825104E
:101700000021816228A101622C4901632C494163B7
:101710002CA0194988630221174880F840108221C3
:1017200080F84110002141642AA1C1632E49C1649F
:101730002E49016503202E490870002048702DA015
:1017400048600D48C8602E4888602E4808612E48C1
:1017500048612E4888612E48C861084600690862C1
:101760000020486270470000C9C1CBB8D0EDBFC9A6
:10177000C9E8D6C300000000B4950020C9E8D6C36C
:10178000D4CAD0EDC9C1CBB8B5C4B5C6C9AB000089
:1017900045B60008FDB50008B0D7CCECB3A3C9C16D
:1017A000C9E8D6C300000000C9E8D6C3B0D7D6E761
:1017B000B3A3C9C1B5C6C9AB00000000018D0008C4
:1017C000B58C0008D2B9BCE4B3A3C9C1C9E8D6C37B
:1017D00000000000C9E8D6C3CDEDBCE4B3A3C9C185
:1017E000B5C6C9AB0000000045D60008F9D5000811
:1017F0008C950020C9C1CBB8C9E8D6C30000000051
:10180000549300206DD20008E59E000885A00008D2
:10181000D19F000808B54FF6FF40ADF80000022048
:101820008DF8020010208DF8030069464F4800F043
:10183000C7F84FF44070ADF8000002208DF80200A8
:1018400004208DF803006946484800F0B9F84FF6C7
:10185000FF70ADF8000003208DF8020010208DF815
:1018600003006946424800F0ABF8FC20ADF80000E8
:1018700002208DF8020010208DF8030069463D48D3
:1018800000F09EF84FF40070ADF8000003208DF8D2
:10189000020018208DF803006946374800F090F8E0
:1018A0004FF48060ADF8000003208DF802000420A2
:1018B0008DF803006946304800F082F84FF47C5000
:1018C000ADF8000002208DF8020004208DF803001E
:1018D0006946284800F074F8C020ADF800000320E5
:1018E0008DF8020014208DF803006946234800F0AB
:1018F00067F82020ADF8000010208DF8030069463D
:101900001E4800F05DF8E020ADF8000001208DF8E1
:10191000020018208DF803006946174800F050F8BF
:101920001020ADF800008DF803006946124800F061
:1019300047F84FF43040ADF8000010208DF8030058
:1019400001208DF8020069460C4800F039F80120AA
:10195000ADF8000004208DF803006946074800F048
:101960002FF80021012000F00BF808BD00180140FD
:10197000001401400010014000080140000C01402B
:1019800030B500228B071C0F0F2303FA04F20B4B18
:101990008C1053F824309343084C8D1044F82530B4
:1019A00023468C1053F824308C07240F00FA04F4DB
:1019B0002343024C8D1044F8253030BD080001400F
:1019C0002DE9F041024600250026002000230024D6
:1019D000002791F803C00CF00F0591F803C01CF02C
:1019E000100F03D091F802C04CEA0505B1F800C011
:1019F0001CF0FF0F31D0146800202BE04FF0010CD9
:101A00000CFA00F3B1F800C00CEA03069E4220D1A4
:101A100083004FF00F0C0CFA03F7BC4305FA03FCEC
:101A20004CEA040491F803C0BCF1280F06D14FF032
:101A3000010C0CFA00FCC2F814C00AE091F803C0D3
:101A4000BCF1480F05D14FF0010C0CFA00FCC2F8B4
:101A500010C0401C0828D1D31460B1F800C0BCF1FC
:101A6000FF0F34DD546800202EE000F1080C4FF029
:101A7000010808FA0CF3B1F800C00CEA03069E4214
:101A800021D183004FF00F0C0CFA03F7BC4305FA89
:101A900003FC4CEA040491F803C0BCF1280F05D103
:101AA00000F1080C08FA0CF8C2F8148091F803C091
:101AB000BCF1480F07D100F1080C4FF0010808FAFB
:101AC0000CF8C2F81080401C0828CED35460BDE842
:101AD000F081000010B54FF48061164800F04EF818
:101AE000012008F0BBF94FF6FF71124800F046F8EC
:101AF000FC21114800F040F84FF6FF710F4800F04C
:101B00003DF820210E4800F037F84FF47A7008F0C5
:101B10009FF920210A4800F031F84021084800F0E0
:101B20002BF8022008F09AF98021054800F026F8E9
:101B300010BD0000001801400010014000140140D9
:101B4000000C01400146886880B2704702460020C0
:101B500093680B4201D0012000E00020704701464D
:101B6000C86880B2704702460020D3680B4201D09B
:101B7000012000E00020704741617047016170471B
:101B8000C16070470AB1016100E041617047000027
:101B900010B5FFF70BF900F5FA600C494861FFF743
:101BA000E1F8401E09490861FFF798F80749C86045
:101BB000FFF7A6F805498860FFF7C2F803494860B7
:101BC000FFF7E2F80149086010BD000030840020F2
:101BD0002DE9F041002408E09B4901EB04122001AB
:101BE000102108F003FB601CC4B2062CF4DB0024B7
:101BF0003AE0002634E0944800EB0410855D602D47
:101C000005DD0021904800EB0410815526E025B346
:101C100028460AF019FE01281AD1681EC21700EBE7
:101C200012721211894B33F81220691ECB1701EB87
:101C300013731B11A1EB03170123BB401A4393B28B
:101C4000C21700EB12721211804F27F8123004E015
:101C500000217D4800EB0410815500BF701CC6B206
:101C6000102EC8DB601CC4B2062CC2DB12207649E1
:101C7000313981F8B6001E217348313880F8B71029
:101C800080F8B810480170493139A1F8920000215C
:101C90006D483138A0F89410A0F89610A0F898106C
:101CA000A0F89A10A0F89C10A0F89E10A0F8A01020
:101CB000A0F8A210A0F8A410A0F8A610A0F8A810F0
:101CC000A0F8AA10A0F8AC10A0F8AE10A0F8B010C0
:101CD000A0F8B210A0F8B41002205B4931390870A6
:101CE0000C2048703A215848313881700021C17069
:101CF00004205549313981F8BA0008215248313859
:101D000080F8BB10092180F8BC100A2180F8BD10B2
:101D10000B2180F8BE1046F22701A0F8CC104BF240
:101D20000461A0F8CE1049F20871A0F8D0104FF469
:101D30002F41A0F8D21046F22701A0F8EC104BF288
:101D40000461A0F8EE1049F20871A0F8F0104FF409
:101D50002F41A0F8F21046F22701A0F80C114BF227
:101D60000461A0F80E1149F20871A0F810114FF4A7
:101D70002F41A0F8121146F22701A0F82C114BF2C6
:101D80000461A0F82E1149F20871A0F830114FF447
:101D90002F41A0F8321146F22701A0F84C114BF266
:101DA0000461A0F84E1149F20871A0F850114FF4E7
:101DB0002F41A0F8521146F22701A0F86C114BF206
:101DC0000461A0F86E1149F20871A0F870114FF487
:101DD0002F41A0F872110E21017100214171817112
:101DE000022180F88C11142180F88D110C2180F8CB
:101DF0008E1140F20641A0F89E1146F62501A0F88A
:101E0000A01140F60441A0F8BE1146F62501A0F845
:101E1000C01141F20601A0F8DE1146F62501A0F836
:101E2000E0114FF4E051A0F8FE1146F62501A0F8AC
:101E300000120021A0F81E12A0F82012A0F83E12F5
:101E4000A0F84012BDE8F0818D840020C0970020EA
:101E500000BFFEE71FB50F4800F02CF80E480090B9
:101E60000020ADF804004BF6FF70ADF806003A20F4
:101E7000ADF808004FF48060ADF80A000001ADF83D
:101E80000C006946034800F031F80121014800F0D8
:101E900005F81FBD00540040A086010021B1028852
:101EA00042F00102028004E002884FF6FE731A40FD
:101EB0000280704710B504460B48844209D10121C5
:101EC000480503F05DFD00214FF4001003F058FDBC
:101ED00008E00121880503F053FD00214FF4800044
:101EE00003F04EFD10BD0000005400402DE9F0430A
:101EF00085B004460D460026B1460427DFF8CC80A5
:101F0000A6884FF6C0710E40684603F0C1FDDDF8AB
:101F100008802F48B8FBF0F01FFA80F946EA09065E
:101F2000A68020884FF6FE710840208000262949AF
:101F3000286888420CD828684000B8FBF0F087B2C7
:101F4000042F00DA04273E4309F10100208427E032
:101F5000E888A0F53F41FF3906D1286800EB400032
:101F6000B8FBF0F087B209E0286800EBC00101EB94
:101F70000010B8FBF0F087B247F480473805000D39
:101F800001D147F0010747F4004006434FF4967033
:101F900009FB00F04FF47A7190FBF1F0401C2084B3
:101FA000A683208840F00100208026884FF6F53176
:101FB0000E40A8886989084306432680A889298994
:101FC0000843208105B0BDE8F083000000127A00CC
:101FD00040420F00A086010010B501F0B3F80D4893
:101FE0000068407838B90B4800680078401E0949FD
:101FF0000968487006E0074800684078401E0549B7
:102000000968487000F092FF02490968C869804772
:1020100010BD0000E400002010B501F093F80E4858
:10202000006841780C4800680078401E814204D165
:10203000002009490968487006E0074800684078B0
:10204000401C05490968487000F070FF02490968A2
:10205000C869804710BD0000E400002010B501F001
:1020600071F80C4800680C4988420BD10948006897
:102070004078062806DB074800684078801F05493D
:102080000968487000F052FF02490968C869804732
:1020900010BD0000E40000205493002010B501F0B2
:1020A00051F8124800681249884217D10F48006859
:1020B0004078801D0D4909680978884207DA0B4885
:1020C00000684078801D09490968487006E00748A3
:1020D00000680078401E05490968487000F026FF36
:1020E00002490968C869804710BD0000E40000206B
:1020F0005493002010B5294804686178C1EBC101F0
:10210000E06800EB8100C068F0B16178C1EBC1010B
:10211000E06800EB8100C0682049086060690968D8
:102120004969884205D000F0FEF81C4909684869F1
:10213000804700F005F919490968886980471749FF
:102140000968C869804728E06178C1EBC101E0688F
:1021500000EB8100406980B16278C2EBC202E168A5
:1021600001EB8201886980476178C1EBC101E068B9
:1021700000EB8100406920620FE06178C1EBC10192
:10218000E06800EB8100006938B16278C2EBC202FE
:10219000E16801EB82010869804710BDE40000207E
:1021A00010B510480468A068D8B10020607020699C
:1021B00020620C49A0680860606909684969884222
:1021C00005D000F0B0F8074909684869804700F079
:1021D000B7F8044909688869804702490968C869ED
:1021E000804710BDE40000200D480078002804DD81
:1021F0000B480078401E0A490870002009490A4A25
:1022000012788854084800780F2805DA06480078C4
:10221000401C0549087002E000200349087070471F
:10222000DD00002044930020DB00002070B5044650
:10223000122000F067FF00F0FC0040EA0405294688
:10224000122001F035FB012007F008FE70BD2DE9DA
:10225000F04704460D462F46122000F053FF00F0D1
:102260000308122000F04EFF00F0FC09494612203E
:1022700001F01EFB0021602001F01AFB21467020B6
:1022800001F016FBB02001F0A7FA002605E017F8D0
:10229000010B01F0D7FA701CC6B2202EF7DB12201A
:1022A00000F030FF00F0FC0040EA08094946122027
:1022B00001F0FEFABDE8F08710B500F0CBFE00F0AB
:1022C0003FFA0021E02001F0F3FA002000F01AFFAD
:1022D00040F008042146F02001F0EAFA012007F05E
:1022E000BDFD00BF002000F00DFF10F0080FF9D178
:1022F00010BD10B50120FFF799FF27230022EC2124
:102300004A2000F0D1FFFFF7D7FF10BD10B5012024
:10231000FFF78CFF1C230122EC214A2000F0C4FFB0
:10232000FFF7CAFF10BD10B50220FFF77FFF26237D
:102330000122EC21352000F0B7FFFFF7BDFF10BDF3
:1023400010B50120FFF772FF27230022EC21352072
:1023500000F0AAFFFFF7B0FF10BD70B504461220D1
:1023600000F0D0FE00F0F30040EA040529461220F8
:1023700001F09EFA70BD00001CB5012053490870A1
:10238000FFF754FF26230122EC21352000F08CFFBB
:10239000FFF792FF0220FFF749FF26230122EC21DD
:1023A000352000F081FFFFF787FF8F231322CDE94F
:1023B0000023012302223521184600F0A3F814233C
:1023C0002622CDE9002302230122C421104600F079
:1023D00099F82022C621022001F0EAF900244EE0FB
:1023E0003B484078A04201D100F090FAC4EBC40011
:1023F000384901EB8000C06870B1C4EBC4020B46E1
:1024000003EB8202517AC4EBC40203EB8202107A1E
:1024100031A201F081FA23E0C4EBC4002D4901EBA5
:102420008000406970B1C4EBC4020B4603EB82022A
:10243000517AC4EBC40203EB8202107A27A201F0A6
:102440006BFA0DE0C4EBC402224B03EB8202517A1B
:10245000C4EBC40203EB8202107A21A201F05CFA01
:10246000C4EBC4011B4A52F8210001F041FA18489C
:102470004078A04201D100F04BFD601CC4B214486A
:102480000078A042ACDC17A2C621022001F044FA79
:102490000F484078C0EBC0000E4901EB8000DA2104
:1024A0004268022001F038FA27230022EF2110466B
:1024B00000F0FAFE00200549087011480078012854
:1024C00002D10220FFF78CF81CBD0000D5000020CF
:1024D000549300207C9300202B200000102000004B
:1024E0002020000018191A1B3AD2C6B6AF20454E5C
:1024F000543AD1A1D4F1204553433ACDCBB3F600A1
:10250000D70000202DE9FF4F81B007460D469046C9
:102510009946DDF838A00220FFF788FE00F09AFD0A
:1025200000241CE00F9800FB0450C1B2384600F0B4
:10253000D3FEB02001F050F94FF0000B09E0FF206E
:1025400001F080F9012007F089FC0BF1010000F097
:10255000FF0B0AFB08F05845F1DC601CC4B209F11E
:1025600001008442DEDB002428E000261FE0AA19D7
:10257000521CD1B20AFB0472D0B200F0ADFEB12001
:1025800001F02AF900F074FD0090AA19521CD1B292
:102590000AFB0472D0B200F09FFEB02001F01CF9DB
:1025A000009941F0800001F04DF9701CC6B20F98FF
:1025B00000FB09F0B042DADC601CC4B208F1010093
:1025C0008442D2DB05B0BDE8F08F2DE9F047074625
:1025D0000D4616469A460220FFF728FE00F03AFD07
:1025E0000024A5E0B4BB2819C1B2384600F074FE3F
:1025F000B12001F0F1F800F03BFD80466019C1B256
:10260000384600F069FEB02001F0E6F848F00F000F
:1026100001F018F94FF0010906E0FF2001F012F96E
:1026200009F1010000F0FF09B145F6DBB12001F02E
:10263000D3F800F01DFD80466219D1B2BA19D0B2AC
:1026400000F04AFEB02001F0C7F848F0F00001F0B9
:10265000F9F86BE0FFE7AAF10100A04235D160195B
:10266000C1B2384600F038FEB12001F0B5F800F0F4
:10267000FFFC80466019C1B2384600F02DFEB02044
:1026800001F0AAF848F00F0001F0DCF84FF0010962
:1026900006E0FF2001F0D6F809F1010000F0FF0983
:1026A000B145F6DBB12001F097F800F0E1FC80467F
:1026B0006219D1B2BA19D0B200F00EFEB02001F00A
:1026C0008BF8F02001F0BEF830E02819C1B238468E
:1026D00000F002FEB12001F07FF800F0C9FC804656
:1026E0002819C1B2384600F0F7FDB02001F074F8A7
:1026F00048F0080001F0A6F82A19D1B2BA19521E02
:10270000D0B200F0E9FDB12001F066F800F0B0FCB5
:1027100080462A19D1B2BA19D0B200F0DDFDB0203E
:1027200001F05AF848F0100001F08CF8601CC4B2B7
:102730005445FFF657AFB12001F04EF8BDE8F087E1
:1027400010B5012000F0DEFC20F0800421460120BD
:1027500001F0AEF810BD70B5044600F07BFCFFF749
:10276000EFFF2146E02001F0A3F8002000F0CAFCB2
:1027700040F008052946F02001F09AF870BD0000ED
:1027800010B504490020FFF762FD03490120FFF75F
:102790005EFD10BD243B0108443B010810B500F06C
:1027A00061FD0421002001F083F80421012001F0E3
:1027B0007FF80021032001F07BF800210F2001F0B9
:1027C00077F80021102001F073F80021112001F0AA
:1027D0006FF80320FFF72AFD302000F089FD042068
:1027E000FFF7BBFD27230022EF21104600F05CFD20
:1027F0000020FFF7B0FF2721212001F059F8EF2139
:10280000312001F055F80021612001F051F800213C
:10281000712001F04DF80021622001F049F80021FB
:10282000722001F045F80021602001F041F80821F4
:10283000702001F03DF80221802001F039F80021DC
:10284000902001F035F80021F12001F031F801204D
:1028500000F05CFDF02000F055FC00F0FB04214688
:10286000F02001F025F80120FFF7E0FC10BD00008A
:1028700010B5EF23272200210846FFF7A6FE0BA282
:102880000221012001F048F812A21321012001F0D9
:1028900043F814A21321142001F03EF815A22421BC
:1028A000012001F039F8FFF767FD10BDB5B1C7B0E1
:1028B000CAB1BCE43A5B202020202D20202D20200E
:1028C0005D5B20203A20203A20205D20D0C7C6DA68
:1028D00000000000D4CBD0D0CAB1B6CE3A20202818
:1028E00020202900D4CBD0D0CFE0CEBB3A20202866
:1028F00020202900B5B1C7B0CFE0CEBBCAA3D3E03A
:10290000CAB1BCE43A202020C3EB000010B510206F
:1029100000F0F8FB40F020042146102000F0C8FF32
:1029200010BD00002DE9F0410646C3480778C348B2
:10293000446A0C2E7ED2DFE806F0F11BD506107D2E
:10294000F0BEEF0711EE00BF607810B91020607084
:1029500002E06078401E60702EE100BF60781028B1
:1029600002D10020607002E06078401C607023E1BA
:10297000607818BBA07C052803DAA07C401CA074FA
:1029800001E00020A074002508E0A17CAC4800EB29
:102990000110415DA01C4155681CC5B2102DF4DB2F
:1029A000002508E0A74830F8151004F1140020F8BD
:1029B0001510681CC5B2062DF4DB7BE000BF627801
:1029C000521EA31C9A5C501EC21700EB1272131108
:1029D00004F1140232F8132063785B1E04F1020C38
:1029E0001CF80330591ECB1701EB13731B11A1EB1D
:1029F000031C012303FA0CF35A401FFA82FC62788D
:102A0000521EA31C9A5C501EC21700EB12721311C7
:102A100004F1140222F813C06078401EA11C085C67
:102A2000602811DA6078401E085C401CC2B26078F1
:102A3000401E00E0BFE00A546178491EA21C505CB1
:102A400009F002FF28B9BAE700226078401EA11CF5
:102A50000A546078401EA11C085C58B36278521E6C
:102A6000A31C9A5C501EC21700EB1272131104F1E2
:102A7000140232F8132063785B1E8C461CF8033076
:102A8000591ECB1701EB13731B11A1EB031C012380
:102A900003FA0CF31A431FFA82FC6278521EA31C3D
:102AA0009A5C501EC21700EB1272131104F114024B
:102AB00022F813C080E0607898B16078401EA11CB5
:102AC000085C602808DA6078401E085C401CC2B2CE
:102AD0006078401E0A5404E000226078401EA11C69
:102AE0000A5469E06078D0B9A07C002803DDA07C9E
:102AF000401EA07401E00520A074002508E0A17C20
:102B00004F4800EB0110415DA01C4155681CC5B247
:102B1000102DF4DB17E02EE016E048E04AE0607884
:102B2000401EA11C085C002808DD6078401E085C7F
:102B3000401EC2B26078401E0A5404E060226078F1
:102B4000401EA11C0A5437E0607898B16078401E9E
:102B5000A11C085C002808DD6078401E085C401E4F
:102B6000C2B26078401E0A5404E060226078401EC1
:102B7000A11C0A5420E003F0ABFE0021012003F069
:102B800035FA002508E0A01C415DA27C2C4800EB32
:102B900002104155681CC5B2102DF4DB03F098FEFD
:102BA0000121084603F022FA0120E07404E001202C
:102BB000207001E002E000BF00BF07E0E07C18B138
:102BC0000020E07409F0ECFDBDE8F081FFF70CFB9C
:102BD000E07C012803D11CA009F00AFE00E000BF40
:102BE00000BF2078012812D11448006913490862F7
:102BF000204608F0BFFD002010494862FFF7A0FB07
:102C00000E49886980470D49C8698047DCE7012083
:102C1000094908706078A11C00F012F90648077095
:102C20000C480078012805D10348007810B902202B
:102C3000FEF7D6FC00BFC7E7D5000020689600204D
:102C40008D840020C0970020C9E8D6C3B3C9B9A6B7
:102C500000000000D700002070B53F480678202112
:102C60000120FDF70BFB3D4948620846446AF4B376
:102C7000002020706070A074E074002508E0A17C42
:102C8000374800EB0110415DA01C4155681CC5B2DE
:102C9000102DF4DB002508E0324830F8151004F15F
:102CA000140020F81510681CC5B2062DF4DB0120B5
:102CB00029490870FFF71DFB27230022EF2110464A
:102CC00000F0F2FA28A24B21022000F025FE2EA2ED
:102CD0005D210B2000F020FE2FA26F21052000F0C7
:102CE0001BFE32A28121052000F016FE00E032E03A
:102CF00033A29321052000F00FFE36A2A521052066
:102D000000F00AFE38A2B721052000F005FE3BA224
:102D1000C921052000F000FE3DA2B0211D2000F0D9
:102D2000FBFD3DA2C4211D2000F0F6FD3DA2DC21EB
:102D3000022000F0F1FD6078A11C00F081F8064847
:102D400006703E480078012805D10348007810B984
:102D50000220FEF745FC70BDD500002068960020DB
:102D60008D840020C0970020B5C6D7E9202028B662
:102D7000CBBFDAD0F2BAC53A312D393620A1C13AEB
:102D8000BDFBD3C329000000C2CC202020BBC6203D
:102D90002020BAEC00000000D7F3D7AA205B202047
:102DA0005D205B20205D205B20205D00D6B1D0D06F
:102DB000205B20205D205B20205D205B20205D00CB
:102DC000D3D2D7AA205B20205D205B20205D205B32
:102DD00020205D00B5F7CDB7205B20205D205B2073
:102DE000205D205B20205D00C8CBD0D0315B20204F
:102DF0005D2020202020205B20205D00C8CBD0D08B
:102E0000325B20205D2020202020205B20205D00E0
:102E10001A1B3AD2C6B6AF0018193AD1A1D4F1B6EE
:102E2000CBBFDA00C7EBB3A4B0B4C8B7B6A8BCFC3C
:102E3000D2D4B1A3B4E6C9E8D6C30000D7000020BD
:102E40002DE9F041074688462C48456A002451E0A8
:102E50006878A04201D1FFF759FD74B9AB7C5B1CC7
:102E6000274E56F82320274B03EB44035978254B74
:102E700013F8140000F050FD35E0224A02EB440242
:102E80005178204A12F8140000F026FA601EA91C9E
:102E9000085C18B91CA000F02BFD24E0B02000F065
:102EA0009BFC601EA91C085C0A2190FBF1F008B98C
:102EB000202007E0601EA91C085C0A2190FBF1F0AD
:102EC0001249085CC6B2304600F0BCFC601EA91C6A
:102ED000085C0A2190FBF1F201FB12000B490E5C29
:102EE000304600F0AFFC6878A04201D100F010F845
:102EF000601CC4B2112CABDBBDE8F08168960020E9
:102F0000EC000020963B0108A1C10000643B0108D1
:102F100010B5102000F0F6F820F020042146102013
:102F200000F0C6FC012006F099FF10BD10B5434823
:102F30000478012041490870FFF7E8FC4048006828
:102F4000C0683F4909684978C1EBC10100EB8100C5
:102F5000C068C8B13A4A1268D268394B1B685B78BE
:102F6000C3EBC30302EB8302517A354A1268D2687D
:102F7000334B1B685B78C3EBC30302EB8302107A0D
:102F800030A200F0C9FC3EE02D480068C0682C4922
:102F900009684978C1EBC10100EB81004069C8B103
:102FA000274A1268D268264B1B685B78C3EBC303C1
:102FB00002EB8302517A224A1268D268204B1B68C6
:102FC0005B78C3EBC30302EB8302107A1EA200F00E
:102FD000A3FC18E01A4A1268D268194B1B685B7888
:102FE000C3EBC30302EB8302517A154A1268D2681D
:102FF000134B1B685B78C3EBC30302EB8302107AAD
:1030000012A200F089FC0E490968C9680C4A1268CE
:103010005278C2EBC20251F8220000F069FCFFF7BF
:1030200077FF064804700A480078012805D1034854
:10303000007810B90120FEF7D3FA10BDD5000020AA
:10304000E40000202B2000001020000020200000C1
:10305000D700002010B5002000F054F820F008043C
:103060002146002000F024FC052006F0F7FE10BDEC
:1030700038B500BF4FF480712148FEF767FD002886
:10308000F8D0FF20ADF8000003208DF802000420E6
:103090008DF8030069461A48FEF792FC4FF4405140
:1030A0001748FEF76BFD4FF480611548FEF764FD8D
:1030B0004FF400611248FEF75FFD4FF400511048D5
:1030C000FEF75AFD0E48FEF73DFDC4B24FF4005125
:1030D0000B48FEF753FD4FF480610948FEF74EFDA3
:1030E000FF20ADF8000003208DF8020010208DF8BD
:1030F000030069460248FEF763FC204638BD000025
:103100000018014070B504460C48067801200B49B0
:103110000870204600F060FBFFF7AAFF054607484D
:10312000067007480078012805D10448007810B9D6
:103130000220FEF755FA284670BD0000D500002099
:10314000D700002010B54148047801203F4908709D
:103150003F480068C0683E4909684978C1EBC10131
:1031600000EB8100C068C8B1394A1268D268384B98
:103170001B685B78C3EBC30302EB8302517A344ACA
:103180001268D268324B1B685B78C3EBC30302EB57
:103190008302107A2FA200F0BFFB3EE02C480068AB
:1031A000C0682B4909684978C1EBC10100EB810077
:1031B0004069C8B1264A1268D268254B1B685B7803
:1031C000C3EBC30302EB8302517A214A1268D2682F
:1031D0001F4B1B685B78C3EBC30302EB8302107ABF
:1031E0001DA200F099FB18E0194A1268D268184B2A
:1031F0001B685B78C3EBC30302EB8302517A144A6A
:103200001268D268124B1B685B78C3EBC30302EBF6
:103210008302107A11A200F07FFB0D490968C9688A
:103220000B4A12685278C2EBC20251F8220000F039
:103230005FFB064804700A480078012805D103485E
:10324000007810B90120FEF7CBF910BDD5000020A1
:10325000E40000202B2000001020000020200000AF
:10326000D700002010B54FF480610E48FEF784FCB3
:103270004FF440510B48FEF781FC4FF48041094860
:10328000FEF77AFC43F6982006F0F4FD4FF48041F7
:103290000448FEF773FC4FF480610248FEF76EFCB1
:1032A00010BD0000001801402DE9F04104460F4612
:1032B00015461E462946402000F0FAFA21465020C5
:1032C00000F0F6FA3146202000F0F2FA39463020BC
:1032D00000F0EEFABDE8F08170B504460D462146D7
:1032E000602000F0E5FA2946702000F0E1FA70BD98
:1032F00070B504461220FFF705FF00F08F0040EA8A
:1033000004052946122000F0D3FA70BD70B50446BA
:10331000012C09D11020FFF7F5FE40F010052946D9
:10332000102000F0C5FA08E01020FFF7EBFE00F0D7
:10333000EF052946102000F0BBFA70BD10B5002043
:10334000FFF7E0FE40F008042146002000F0B0FA4C
:10335000F020FFF7D7FE00F0FB042146F02000F03C
:10336000A7FAFFF7EDF9052006F078FD10BD000083
:103370002DE9F0476020FFF7C5FE06467020FFF7F5
:10338000C1FE07465020FFF7BDFE80463020FFF704
:10339000B9FE81464020FFF7B5FE82462020FFF7A8
:1033A000B1FE054600BFF020FFF7ACFE10F0010FA4
:1033B000F9D127230022EF211046FFF775FFEB48D4
:1033C00040694FF47A7190FBF1F0E9490C5C2246B8
:1033D00002210B2000F0ECF9E4484069642190FBE5
:1033E000F1F00A2190FBF1F201FB1200E0490C5CC4
:1033F000204600F0CFF9DD484069642190FBF1F2EE
:1034000001FB12000A2190FBF1F0D9490C5C204627
:1034100000F0C0F9D54840690A2190FBF1F201FBA8
:103420001200D3490C5C204600F0B4F92D2000F0C6
:10343000B1F9CE480069401C0A2190FBF1F008B9AF
:10344000202007E0C9480069401C0A2190FBF1F0E8
:10345000C749085CC4B2204600F09CF9C348006923
:10346000401C0A2190FBF1F201FB1200C0490C5CE8
:10347000204600F08FF92D2000F08CF9BB48C06881
:103480000A2190FBF1F008B9202006E0B748C06897
:103490000A2190FBF1F0B649085CC4B2204600F066
:1034A00079F9B248C0680A2190FBF1F201FB1200E1
:1034B000AF490C5C204600F06DF9AC488069AD491D
:1034C00051F820200221252000F026FAA748806824
:1034D0000A2190FBF1F008B9202006E0A34880689B
:1034E0000A2190FBF1F0A249085CC4B222460221F5
:1034F000172000F05DF99D4880680A2190FBF1F2E9
:1035000001FB12009A490C5C204600F043F93A2076
:1035100000F040F9954840680A2190FBF1F008B9A5
:10352000202006E0914840680A2190FBF1F0904984
:10353000085CC4B2204600F02DF98C4840680A218E
:1035400090FBF1F201FB120089490C5C204600F06F
:1035500021F93A2000F01EF9844800680A2190FB06
:10356000F1F008B9202006E0804800680A2190FBAD
:10357000F1F07F49085CC4B2204600F00BF97B48AB
:1035800000680A2190FBF1F201FB120078490C5C03
:10359000204600F0FFF878480078401C0A2190FB94
:1035A000F1F008B9202006E0734800780A2190FB6A
:1035B000F1F06F49085CC4B2224613210A2000F0E2
:1035C000F7F86D480078401C0A2190FBF1F201FBEE
:1035D000120067490C5C204600F0DCF86748007870
:1035E0000A2190FBF1F008B9202006E0634800783A
:1035F0000A2190FBF1F05E49085CC4B22246132117
:103600000D2000F0D5F85D4800780A2190FBF1F21A
:1036100001FB120056490C5C204600F0BBF85848EC
:103620000078401C0A2190FBF1F008B9202006E048
:10363000534800780A2190FBF1F04D49085CC4B270
:10364000224613211D2000F0B3F84D480078401C9D
:103650000A2190FBF1F201FB120045490C5C204667
:1036600000F098F844480078C0EB0010C0EBC001AF
:103670004248BA3010F811000A2190FBF1F008B965
:1036800020200EE03C480078C0EB0010C0EBC001E9
:103690003A48BA3010F811000A2190FBF1F0344991
:1036A000085CC4B222461321202000F081F8324881
:1036B0000078C0EB0010C0EBC0013048BA3010F801
:1036C00011000A2190FBF1F201FB120028490C5C69
:1036D000204600F05FF82B4800780A2190FBF1F0BB
:1036E00008B9202006E0274800780A2190FBF1F075
:1036F0001F49085CC4B222462421122000F058F869
:10370000204800780A2190FBF1F201FB12001849D1
:103710000C5C204600F03EF81B480078012805D1DB
:10372000002224211C2000F016F904E017A2242115
:103730001C2000F0F1F816480078012805D101227C
:1037400024211F2000F007F904E010A224211F20EB
:1037500000F0E2F82B46524649464046FFF7A4FDEA
:1037600039463046FFF7B8FDBDE8F08730840020C9
:10377000643B0108EC000020DA0000205C8400209B
:10378000D9000020D8000020CF0000202020000019
:10379000D300002010B504460120FEF747FDFFF7D7
:1037A000CDFDB02000F018F8204600F04BF810BD19
:1037B00070B505460E4614460120FEF737FDFFF7AB
:1037C000BDFD31462846FFF787FDB02000F004F824
:1037D000204600F037F870BD70B5044600BF4FF4C6
:1037E00080711748FEF7B2F90028F8D04FF4405125
:1037F0001348FEF7C3F91248FEF7B1F900F47F4011
:1038000040EA040529460E48FEF7BAF94FF48061F4
:103810000B48FEF7B1F94FF400610948FEF7AEF925
:103820004FF480510648FEF7A7F94FF48051044841
:10383000FEF7A4F94FF480610148FEF79FF970BDCF
:103840000018014070B5044600BF4FF4807117485E
:10385000FEF77CF90028F8D04FF440511348FEF7EA
:103860008DF91248FEF77BF900F47F4040EA040529
:1038700029460E48FEF784F94FF480610B48FEF7A5
:103880007BF94FF400610948FEF776F94FF4805157
:103890000648FEF771F94FF480510448FEF76EF9BF
:1038A0004FF480610148FEF769F970BD00180140CE
:1038B00070B505460C460C48067801200A49087088
:1038C0002846FFF789FF2046FFF7BCFF0648067031
:1038D00006480078012805D10348007810B9022075
:1038E000FDF77EFE70BD0000D5000020D70000204F
:1038F00070B505462C460120FEF798FCFFF71EFD2B
:10390000B020FFF769FF03E014F8010BFFF79AFFFF
:1039100020780028F8D170BD2DE9F04106460F4609
:1039200015462C460120FEF781FCFFF707FD3946BE
:103930003046FFF7D1FCB020FFF74EFF06E014F849
:10394000010BFFF77FFF012006F088FA207800289E
:10395000F5D1BDE8F0812DE9F04105460E4614464B
:103960000120FEF763FCFFF7E9FC0020FFF7CAFB2C
:1039700040F0400739460020FFF79AFF31462846BD
:10398000FFF7AAFCB020FFF727FF9F20FFF75AFFA1
:103990002046FFF757FF0020FFF7B4FB20F0400759
:1039A00039460020FFF784FFBDE8F08125A02949B2
:1039B0000860022008725020487227A0486000204A
:1039C000C8602C4848612C4888612CA0C86102213D
:1039D000204880F82410642180F825102CA1016271
:1039E00000218162016341633049C16230A01949FD
:1039F00088630221174880F84010782180F8411030
:103A00002FA1C16300214164C1640165344981640F
:103A10000320344908700020487033A048600D48E6
:103A2000C860344888603448086134484861344884
:103A300088613448C861084600690862002048620D
:103A400070470000D0DEB8C4B5C6D7E9D0F2BAC519
:103A50000000000090960020D0DEB8C4B5C6D3EBBD
:103A6000CAE4B3F6BFDAB5C4D3B3C9E4B9D8CFB5A5
:103A70000000000025290008592C0008B1A3B4E675
:103A8000B5C6D7E9BDD3BFDAC9E8D6C30000000088
:103A9000B1A3B4E6B5C6D7E9D0F2BAC5B5BDCDE29B
:103AA000B2BFB4E6B4A2C6F70000000081C80008A7
:103AB000BBD6B8B4B3F6B3A7C9E8D6C300000000BC
:103AC000BDABBDD3BFDAC9E8D6C3BBD6B8B4CEAAA6
:103AD000C4ACC8CFB3F6B3A7D7B4CCAC00000000D9
:103AE00041DE000868960020B5C6CEBBB5C6C9AB9E
:103AF00000000000549300206DD20008E59E0008ED
:103B000085A00008D19F00082DE9F04105468848AE
:103B100007788848446A112D73D2DFE805F08717CB
:103B200025091033731E2C888888888888887E0031
:103B30002078272802DA20780A30207078E0207870
:103B40000A2802DD20780A38207071E020783028B9
:103B500002DA2078401C20706AE02078302802DAEF
:103B60002078401C207063E02078012802DD207856
:103B7000401E20705CE02078012802DD2078401E85
:103B8000207055E020790B2800D151E04FF6FF71ED
:103B90006948FDF7F3FF2078461EF01706EB10701A
:103BA0000011A6EB00120120904081B26248FDF79F
:103BB000E3FF012006F052F921784E1EF11706EBC3
:103BC0001171C1F3071000F06BFD804601465B48A0
:103BD000FDF7D4FF012006F041F921784E1EF117C0
:103BE00006EB1171C1F3071000F05AFD8046014643
:103BF0005248FDF7C3FF012006F030F90120207183
:103C000016E014E020790B2804D10820207108F078
:103C1000C7FD01E0092020710AE00B202071FCF7AC
:103C200003FF0120E0700020A07001E002E000BF6F
:103C300000BF57E02079012802D00B284ED104E0C4
:103C40000820207108F0ACFD49E0A078012841DD92
:103C50000020A070E078461EF01706EB10700011EF
:103C6000A6EB001201209040C04381B23248FDF71C
:103C700087FF012006F0F2F8E1784E1EF11706EBFF
:103C80001171C1F3071000F00BFD804601462B486F
:103C9000FDF774FF012006F0E1F8E1784E1EF11700
:103CA00006EB1171C1F3071000F0FAFC80460146E3
:103CB0002248FDF761FF012006F0D0F8E0783028B7
:103CC00003DAE078401CE07007E008F069FD0820A6
:103CD000207102E0A078401CA07000E000BF00BF8F
:103CE000BDE8F081FEF780FA2079012802D00B2888
:103CF00008D103E012A008F07BFD04E013A008F057
:103D000077FD00E000BF00BF01200949087020785E
:103D100000F026F80648077010480078012805D101
:103D20000348007810B90220FDF75AFC00BFD7E71E
:103D3000D5000020449700200014014000100140ED
:103D4000B8FCB8C4B3C9B9A600000000D7D4B6AF58
:103D5000B2E2CAD4BFAACABC00000000D70000204B
:103D600070B50446FEF7D2FD8C211020FFF7B4FA9F
:103D7000B020FFF731FD0A2094FBF0F008490D5CFC
:103D80002846FFF75FFD0A2094FBF0F100FB11408D
:103D900003490D5C2846FFF755FDFFF7B9F870BDE4
:103DA000643B010810B50C210120FCF767FA0949B2
:103DB00048620846446A5CB1012020700020E0702F
:103DC00060702071C4F80500A4F8090000F06EF8D6
:103DD00010BD00004497002070B51C48446A1C4880
:103DE000057801201A490870FEF790FA272300226F
:103DF000EF211046FFF758FA16A250210220FFF7D4
:103E00008BFD1AA264210220FFF786FD1AA27821F9
:103E10000220FFF781FD1EA28C210220FFF77CFD0E
:103E20002078FFF79DFF0A4805701E48007801289A
:103E300005D10748007810B90220FDF7D1FBFCF747
:103E4000F3FD01201849087070BD00004497002060
:103E5000D5000020C9E8D6C3D2AABCECB2E2B5C4F2
:103E6000BDBBCDA8B5C6D0F2BAC5000028312D34EF
:103E700038BAC529000000001B1A3AD0F2BAC5A111
:103E8000C031302018193AD0F2BAC5A1C0310000B3
:103E9000B5B1C7B0B2E2CAD4D0F2BAC5A1BE202033
:103EA000A1BF0000D7000020D400002070B5054657
:103EB0003248446A20790C285CD2DFE800F0061A08
:103EC0005B5B5B5B0E151C200D1BE07A611D01F036
:103ED00003FA0620207170BD00BF631D9A1D211DCD
:103EE000284601F071FA46E0FFF776FF08202071BE
:103EF000F1E700BF00BF2846FFF706FE3BE01F4882
:103F000000691E490862204607F034FC00201B4966
:103F10004862FEF715FA1949886980471749C86948
:103F20008047002016490870164908701649087025
:103F300003F0E8FB03F028FC14480078C0EB001005
:103F4000C0EBC002124800EB4201D2221148FCF73C
:103F50005BF91048401C0A490978405C0E4908701A
:103F6000074801780948007800F0AEF900200B49B5
:103F70000870B0E700BF00BF00BFACE74497002067
:103F8000D9000020D0000020D1000020DA0000205D
:103F90001685002072920020D8000020D400002056
:103FA00070B586B03F48007806280CDD002407E095
:103FB0003D4830F8140003A921F81400601CC4B275
:103FC000062CF5DB38E037480078062818DC354841
:103FD0000078032814DB00240FE0344830F8140084
:103FE000334931F8141008402F4931F814100843B0
:103FF00003A921F81400601CC4B2062CEDDB1BE001
:1040000028480078032817DA002413E0274830F8FE
:104010001400284931F814104840254931F814108B
:104020000840214931F81410084303A921F814006D
:10403000601CC4B2062CE9DB1F484089C043BDF8B0
:1040400016104840C04383B21B480089C043BDF8E6
:1040500014104840C04382B2174DCDE90023ED88CB
:10406000ED43BDF812607540ED43ABB2124DAD8823
:10407000ED43BDF810607540ED43AAB20E4D6D885A
:10408000ED43BDF80E607540ED43A9B20A4D2D8891
:10409000ED43BDF80C607540ED43A8B2FCF7D8FCC9
:1040A00006B070BDD80000205A9200203692002041
:1040B000669200204E920020429200207CB500259E
:1040C00033E00A242DE0774800EB0510005D30B3A3
:1040D000744A02EB0512125D501EC21700EB1272F9
:1040E0001211714B33F812206E4B03EB05131B5D5D
:1040F000591ECB1701EB13731B11A1EB0316012300
:10410000B3401A4393B2674A02EB0512125D501E88
:10411000C21700EB12721211634E26F81230601CA7
:10412000C4B2102CCFDB681CC5B2062DC9DB5E48BB
:10413000438902890646CDE90023F388B288718855
:104140003088FCF785FC052058490870FDF720FDF4
:1041500001F060FE0BE056480078012807D1534873
:104160000078401E514908700020514908704F489E
:1041700000780028EFD1002405E000204A4921F80A
:104180001400601CC4B2062CF7DB002533E00624C3
:104190002DE0444800EB0510005D30B3414A02EBCE
:1041A0000512125D501EC21700EB127212113E4B27
:1041B00033F812203B4B03EB05131B5D591ECB1745
:1041C00001EB13731B11A1EB03160123B3401A4338
:1041D00093B2344A02EB0512125D501EC21700EB77
:1041E00012721211304E26F81230601CC4B20A2C22
:1041F000CFDB681CC5B2062DC9DB05202B49087032
:1042000020E02B48007801280ED1002028490870B2
:104210002548438902890646CDE90023F388B28800
:1042200071883088FCF714FC22480078012809D1F5
:104230001E480078401E1D49087000201D49087066
:10424000FCF7F2FB194800780028DAD100210120A0
:1042500001F0CCFE03F056FA03F096FA1648007807
:10426000C0EB0010C0EBC0020E48893000EB4201E9
:10427000D2221248FBF7C8FF1048401C10490978A9
:10428000405C0A49087001200E4908700C4801780A
:104290000948007800F018F80121084601F0A6FE50
:1042A0007CBD00008D84002036920020D8000020C4
:1042B000CC000020CE000020DA0000207292002006
:1042C000D9000020D2000020F0B505460A460020A3
:1042D0000EE00023C84C24F81030C84C24F81030ED
:1042E000C74C24F81030C74C24F81030431CD8B207
:1042F0000628EEDB002186E000207FE0C24B03EBC6
:1043000001131B5CEBB3C04E06EB0116365C741E4A
:10431000E61704EB16763611B74F37F81670BB4E1A
:1043200006EB411636F812604FF0010C0CFA00FC57
:1043300016EA0C0F01D100260DE0B34E06EB011674
:10434000365C731EDE1703EB16763611A3EB061CE4
:10435000012606FA0CF63743AB4E06EB0116365C27
:10436000741EE61704EB16763611DFF88CC22CF8B3
:104370001670A54B03EB0114831DE35C0BB1A24E39
:1043800000E039E006EB0117861DBE5D741EE617DE
:1043900004EB16763611674637F816709B4E06EB1F
:1043A000411636F812604FF0010C0CFA00FC16EAC8
:1043B0000C0F01D100260FE0934E06EB011C861D69
:1043C0001CF80660731EDE1703EB16763611A3EB9E
:1043D000061C012606FA0CF637438B4E06EB011C31
:1043E000861D1CF80660741EE61704EB167636115F
:1043F000DFF804C22CF81670431CD8B20428FFF66C
:104400007DAF4B1CD9B20629FFF676AF0021EFE055
:104410000020E8E07C4B03EB01131B5CF3B37A4E06
:1044200006EB0116365C741EE61704EB16763611A1
:10443000724F37F81670754E06EB411636F812C0FB
:10444000012686401CEA060F01D100260DE06E4EC3
:1044500006EB0116365C731EDE1703EB167636117B
:10446000A3EB061C012606FA0CF63743664E06EB54
:104470000116365C741EE61704EB16763611DFF86B
:104480007CC12CF81670604E06EB0116365C741E6B
:10449000E61704EB167636115A4F00E0A1E037F824
:1044A000167001EB410C584E613636F81C604FF027
:1044B000010C0CFA00FC16EA0C0F01D100260DE0ED
:1044C000514E06EB0116365C731EDE1703EB1676B3
:1044D0003611A3EB061C012606FA0CF637434A4EAA
:1044E00006EB0116365C741EE61704EB16763611E1
:1044F000DFF810C12CF81670454B1B78C3BB424E39
:1045000006EB0116365C741EE61704EB16763611C0
:104510003B4F37F8167001EB410C3B4E613606EB12
:104520004C0676884FF0010C0CFA00FC16EA0C0FD2
:1045300001D100260DE0344E06EB0116365C731EE9
:10454000DE1703EB16763611A3EB061C012606FADE
:104550000CF637432C4E06EB0116365C741EE6173C
:1045600004EB16763611DFF898C02CF8167038E098
:10457000FFE7254E06EB0116365C731EDE1703EBD4
:10458000167636111E4F37F8167001EB410C1E4E91
:10459000613606EB4C06B6884FF0010C0CFA00FCB5
:1045A00016EA0C0F01D100260DE0174E06EB01169E
:1045B000365C741EE61704EB16763611A4EB061C67
:1045C000012606FA0CF637430F4E06EB0116365C51
:1045D000731EDE1703EB16763611DFF824C02CF8B5
:1045E0001670431CD8B21028FFF614AF4B1CD9B27A
:1045F0000629FFF60DAFF0BD4E9200203692002046
:104600005A920020669200208D840020849200201F
:10461000CF0000207CB51D480078032810DB002463
:104620000BE01B4830F814001A4931F81410084305
:10463000194921F81400601CC4B2062CF1DB17E004
:1046400012480078032813DA00240FE0134830F8EA
:1046500014000F4931F8141048400E4931F8141075
:1046600008430D4921F81400601CC4B2062CEDDB90
:104670000948438902890546CDE90023EB88AA88C9
:1046800069882888FCF7E4F97CBD0000D800002088
:10469000369200205A920020429200204E92002032
:1046A0000146062910D2DFE801F0030507090B0DCA
:1046B000202070474020FCE78020FAE70420F8E73C
:1046C0000820F6E71020F4E70020F2E700B587B0F5
:1046D00008F006FB08F0DCFC0E4806906FF07F4007
:1046E00005900D4804900D4B0D4A00218DE80E00F9
:1046F00004AB05AA06A90B4808F000FE094808F01B
:104700004BFE084808F096FE07A003F0B1F907B089
:1047100000BD0000C0A80170C0A801016DB4000870
:1047200059B50008CC9700204C77495020496E6954
:104730007420537563636564640A00006AA06D4960
:104740000860022008723D2048726BA048607148E2
:10475000C8600020486108616FA0C86102216548F7
:1047600080F82410522180F825106E4981626EA1D4
:10477000016200210163C16272A05E498863022167
:104780005C4880F84010672180F84110704941640E
:1047900070A1C1630021C164816475A05549486559
:1047A0000221544880F85C107C2180F85D10734928
:1047B000016673A1816500218166416677A04D493C
:1047C000086702214B4880F87810912180F8791011
:1047D0007549C16775A141670021C0F88410C0F810
:1047E00080107CA04349C1F88C000221414880F828
:1047F0009410A62180F8951079A1C0F8901000219E
:10480000C0F89810C0F8A010C0F89C107DA03949DD
:10481000C1F8A8001521374880F8B0103D2180F874
:10482000B1107BA1C0F8AC108049C0F8B4100021D1
:10483000C0F8BC10C0F8B8107DA02E49C1F8C40063
:1048400015212C4880F8CC10522180F8CD107CA185
:10485000C0F8C8100021C0F8D010C0F8D810C0F8B7
:10486000D4107FA02349C1F8E0001521214880F829
:10487000E810672180F8E9107DA1C0F8E41000215C
:10488000C0F8EC10C0F8F410C0F8F0107EA0194980
:10489000C1F8FC001521174880F804117C2180F82C
:1048A000051167A1C0F800110021C0F80811C0F877
:1048B0001011C0F80C110A207749087000204870C8
:1048C00076A048600B48C860002088607448086182
:1048D00074484861744888617448C8610846006932
:1048E0000862002048627047B5C6CEBBB5C6C9ABEA
:1048F000000000007C930020B8FCB8C44750494F2A
:10490000D2FDBDC5D3EBB5C6C9ABB9D8C1AAB9D81C
:10491000CFB5000068960020C9C1CBB8C9E8D6C39E
:10492000000000008C950020C9E8D6C3B3A3C9C11C
:10493000B5C6C9ABBACDD4CAD0EDC9C1CBB8B5C61E
:10494000C9AB0000CAB1B6CEC9E8D6C300000000AA
:1049500010950020CCEDBCD3C9BEB3FDCAB1B6CE14
:10496000BBF2B8FCB8C4CAB1B6CEB2CECAFD000024
:10497000CFE0CEBBC9E8D6C300000000949400206D
:10498000CCEDBCD3C9BEB3FDCFE0CEBBBBF2B8FC0F
:10499000B8C4CFE0CEBBB2CECAFD0000CAB1BCE401
:1049A000C9E8D6C30000000008960020B8FCB8C4CF
:1049B000B5B1C7B0CAB1BCE4A1A2B8FCB8C4D6E7CF
:1049C000D2B9CAB1BCE4BACDD0DDC3DFCAB1BCE450
:1049D00000000000B7BDB0B8D1A1D4F100000000C4
:1049E000BFC9D1A13136B8F6D2D1D6AAB7BDB0B8B9
:1049F000BACD34B8F6D7D4B6A8D2E5D0DEB8C4B7AD
:104A0000BDB0B800CAD6B6AFC4A3CABD000000008E
:104A1000CAD6B6AFB5F7CAD4C4A3CABDA3ACD6BB79
:104A2000D4DAB2E2CAD4D3C3000000004497002015
:104A3000CCD8CAE2B9A4D7F7C4A3CABD000000000D
:104A4000BDABD0DEB8C4B7BDB0B8B4E6D6C1D7D41C
:104A5000B6A8D2E5D0DEB8C4B7BDB0B8000000003B
:104A6000BDF8C8EBD0DDC3DFC4A3CABD00000000A1
:104A7000CAB9D0C5BAC5BBFABDF8C8EBD0DDC3DF33
:104A8000D7B4CCAC00000000B1A3B4E6C9E8D6C3EB
:104A9000B5BD50524F4D000054930020200000003F
:104AA000D5D100088D9E000885A00008399F000818
:104AB00025A029490860022008725020487227A0CA
:104AC00048600020C8602B4848612B4888612BA0B3
:104AD000C8610221204880F82410642180F8251044
:104AE0002AA10162002181622F4901632F4941639C
:104AF0002FA0194988630221174880F840107821B7
:104B000080F841102DA1C163002141643149C16485
:104B1000314901650320314908700020487030A0F8
:104B200048600D48C86031488860314808613148A4
:104B30004861314888613148C861084600690862A7
:104B40000020486270470000CFE0CEBBCAB1BCE491
:104B5000D1D3B3A4000000006C970020CAD6B6AF32
:104B6000B5F7D0A3B5B1C7B0CFE0CEBBCAB1BCE4F6
:104B700000000000A14D0008CD4C0008D4CBD0D0DF
:104B8000CBF8B6A8CFE0CEBB00000000CAD6B6AFC7
:104B9000D6B8B6A8B5B1C7B0D1ADBBB7D4CBD0D01D
:104BA000B5C4CFE0CEBB0000855100085D500008C1
:104BB000BDBBCDA8B5C6BCECB2E20000B5E3C1C137
:104BC000D6B8B6A8D0F2BAC5B5C4BDBBCDA8B5C6D7
:104BD00000000000AD3E0008A53D000844970020FD
:104BE000CAD6B6AFC4A3CABD0000000054930020CB
:104BF0006DD20008E59E000885A00008D19F00083E
:104C000070B504462F48456A092C3DD2DFE804F010
:104C10003B1D2C051337381E2D002B4800785A28D1
:104C200008DA29480078062804DD274800780A3089
:104C30002549087029E024480078102804DD22481E
:104C400000780A38204908701FE000BF1E4800782D
:104C5000632808DA1C480078062804DD1A48007822
:104C6000401C1949087010E000BF17480078072859
:104C700004DD15480078401E1349087005E004E083
:104C80000920287001E070BD00BF00BFFDF7ACFA3D
:104C90002878092812D10B4800690A490862284679
:104CA00006F068FD002007494862FDF749FB054909
:104CB000886980470349C869804700E000BF00BF9A
:104CC00000BFE0E744970020D800002070B509211C
:104CD0000120FBF7D3FA0B4948620846446A6CB1DD
:104CE000002060702070002504E00021A01C4155C8
:104CF000681CC5B2062DF8DB00212172002000F0EF
:104D00004FF870BD4497002010B514480478012076
:104D100012490870FDF7FAFA27230022EF21104606
:104D2000FEF7C2FA0EA250210220FEF7F5FD13A2F3
:104D300064210220FEF7F0FD14A278210220FEF784
:104D4000EBFD0648047015480078012805D103489A
:104D5000007810B90220FCF743FC10BDD5000020FC
:104D6000B5F7D5FBB5B1C7B0CFE0CEBBCAB1BCE497
:104D700028362D3939C3EB290000000018193ABC38
:104D8000D3BCF5CAB1BCE431C3EB00001B1A3ABC7A
:104D9000D3BCF5CAB1BCE43130C3EB00D70000206E
:104DA00070B505461D48446A20790B2832D2DFE8E9
:104DB00000F00631313131310E151A1E0D00E07A46
:104DC000611D00F089FA0620207170BD00BF631DCF
:104DD0009A1D211D284600F0F7FA1CE0FFF794FF0A
:104DE00008202071F1E72846FFF70AFF13E00B487F
:104DF00000690A490862204606F0BCFC0020074909
:104E00004862FDF79DFA0549886980470349C869EA
:104E10008047DAE700BF00BF00BFD6E74497002015
:104E200070B50546554806785548446A072D78D22E
:104E3000DFE805F0761436040C4B7300607810B987
:104E40000120607001E0002060706BE0607810B9B4
:104E50000120607001E00020607063E0607858B964
:104E6000617A48480078401E814205DA607A401C29
:104E700060720020A07212E0607801280FD1A17A40
:104E8000607AC0EB0010C0EBC0023E48BA3010F8A8
:104E90001200401E814202DAA07A401CA07241E05A
:104EA000607840B9607A002805DD607A401E607243
:104EB0000020A07208E06078012805D1A07A0028BF
:104EC00002DDA07A401EA0722CE0607A2E490870A4
:104ED000A07A2E4908700021012001F087F82B48A4
:104EE000017829480078FFF7EFF927480078C0EBF0
:104EF0000010C0EBC0012348BA3000EB4100401C59
:104F000022490978405C224908700121084601F0D5
:104F10006DF80C20207005E003E00920207001E00E
:104F200002E000BF00BF09E020780C2804D108206F
:104F3000207007F035FC00BF00BF70BDFDF754F9CD
:104F400020780C2803D113A007F052FC00BF00BF4B
:104F500001200A490870A27A617A607800F022F88C
:104F6000064806700E480078012805D103480078ED
:104F700010B90220FCF734FB00BFDEE7D5000020AB
:104F8000449700205C840020DA000020D900002033
:104F9000D8000020C9E8D6C3B3C9B9A600000000F4
:104FA000D70000202DE9F04105460E4617460024A3
:104FB0004CE0AC4201D1FDF7A9FC264A02EB4402C9
:104FC0005178244A12F81400FEF786F914B1012C26
:104FD00034D119E0B020FEF7FFFB701C0A2190FBD2
:104FE000F1F01D4911F800804046FEF72BFC701CC3
:104FF0000A2190FBF1F201FB1200174911F8008021
:105000004046FEF71FFC1AE0B020FEF7E5FB781CD7
:105010000A2190FBF1F0104911F800804046FEF79C
:1050200011FC781C0A2190FBF1F201FB12000A49E5
:1050300011F800804046FEF705FC00E000BF00BF0D
:10504000AC4201D1FDF764FF601CC4B2022CB0DB9E
:10505000BDE8F0816E3B0108643B010870B50B218F
:105060000120FBF70BF90B4948620846446A6CB112
:1050700000202070607000212172002504E00021D2
:10508000A01C4155681CC5B2062DF8DB002000F0BD
:1050900079F870BD4497002070B522480578224801
:1050A000446A01201F490870FDF730F927230022C8
:1050B000EF211046FEF7F8F81CA250210220FEF75F
:1050C0002BFC21A264210220FEF726FC22A27821DB
:1050D0000220FEF721FC26A28A210C20FEF71CFCF0
:1050E000A27A617A6078FFF75DFF0E480570234869
:1050F0000078012805D10B48007810B90220FCF790
:105100006FFA0021012000F071FF01201C49087096
:1051100000210846FFF7D8F80121084600F066FF95
:1051200070BD0000D500002044970020C9E8D6C318
:10513000B2A2CBF8B6A8D4CBD0D0CAB1B6CEBCB050
:10514000CFE0CEBB000000001B1A3AD2C6B6AF209B
:1051500018193ABCD3BCF500B5B1C7B0D1A1D4F190
:105160003A20CAB1B6CEA1BE2020A1BF00000000E7
:10517000CFE0CEBBA1BE2020A1BF0000D700002001
:10518000D300002070B505463248446A20780D28C7
:105190005CD2DFE800F0075B5B5B5B5B0F161C20FB
:1051A0000E5B1B006078A11C00F096F806202070B2
:1051B00070BD00BFA31C621C2146284600F004F904
:1051C00045E0FFF769FF08202070F1E700BF28469F
:1051D000FFF726FE3BE01F4800691E490862204693
:1051E00006F0C8FA00201B494862FDF7A9F81949E2
:1051F000886980471749C8698047002016490870A8
:10520000164908701649087002F07CFA02F0BCFAE0
:1052100014480078C0EB0010C0EBC002124800EB4D
:105220004201D2221148FAF7EFFF1048401C0A4908
:105230000978405C0E4908700748017809480078F1
:10524000FFF742F800200B490870B1E700BF00BF2C
:1052500000BFADE744970020D9000020D000002017
:10526000D1000020DA000020168500207292002074
:10527000D8000020D300002000BFFEE72DE9F04158
:1052800005460E466E210B20FEF726F800241CE092
:10529000AC4212D1FDF73AFBB020FEF79DFA305D2B
:1052A0000A2190FBF1F201FB12000A490F5C38461B
:1052B000FEF7C8FAFDF72CFE05E0B020FEF78CFAE9
:1052C0002A20FEF7BFFA601CC4B2062CE0DBBDE862
:1052D000F0810000643B01082DE9F04105460E46CF
:1052E00026480778012025490870FDF70FF8262386
:1052F0001D22AA216020FDF7D7FFFCF7DDFF272341
:105300000022EF211046FDF7CFFF1DA25021022001
:10531000FEF702FB6E210B20FDF7DEFF00241DE0EF
:10532000AC4213D1FDF7F2FAB020FEF755FA305D2A
:105330000A2190FBF1F201FB1200184911F80080DC
:105340004046FEF77FFAFDF7E3FD05E0B020FEF7EB
:1053500043FA2A20FEF776FA601CC4B2062CDFDB83
:10536000064807700E480078012805D103480078E8
:1053700010B90220FCF734F9BDE8F081D500002017
:10538000C7EBCAE4C8EBC1F9CEBBC3DCC2EB3A2819
:10539000B3F5CABCCEAA302900000000643B010866
:1053A000D700002000B5FFF783FB00F0A3FC02F05C
:1053B00019F9FEF7FBFAFCF78BF900F02FFA00F071
:1053C00091F9FFF7BBF900BD2DE9F04107460E4604
:1053D00014461D464C4890F80080072F4AD2DFE85B
:1053E00007F0481721040D2B4500207810B905203F
:1053F000207002E02078401E20703CE020780528D4
:1054000002D10020207002E02078401C207032E0A1
:105410002078285C092804DA2078285C401C217850
:10542000685428E02078285C002804DD2078285C77
:10543000401E217868541EE02878012813D168782E
:10544000012810D1A87801280DD1E87801280AD1C7
:105450002879012807D16879012804D10720307004
:105460000020207001E00A20307004E00920307034
:1054700001E002E000BF00BF28E030780A2822D116
:1054800006203070012020490870FCF7CFFE26234B
:105490001D22AA214C20FDF707FFFCF70DFF272353
:1054A0000022EF211046FDF7FFFE174880F800802C
:1054B00016480078012805D11348007810B9022059
:1054C000FCF78EF800BF00BFBDE8F081FCF78CFE52
:1054D00030780A2803D10EA007F08AF900E000BF57
:1054E00000BF01200849087020782946FFF7C6FE52
:1054F00000200549087005480078012802D10220E3
:10550000FCF76EF800BFDFE7D5000020D7000020D1
:10551000C3DCC2EBB4EDCEF3000000007047000026
:1055200008B500BF012080F3108800BF4FF4A060D1
:1055300000F0BCF800214FF0006000F0C1F8072037
:105540008DF8000001208DF8010000208DF8020088
:1055500001208DF80300684600F066F806208DF8FB
:10556000000001208DF801008DF802008DF8030085
:10557000684600F059F81C208DF8000000208DF8D6
:1055800001008DF8020001208DF80300684600F04C
:105590004BF836208DF8000001208DF80100002026
:1055A0008DF8020001208DF80300684600F03CF8F9
:1055B00003208DF8000000208DF801008DF8020016
:1055C00001208DF80300684600F02EF800BF134854
:1055D000B0F1807F00D31BE01048401E4FF0E02167
:1055E000486100BF4817002805DA0F2000010C4968
:1055F0000B22885404E00F2000010A494A178854FE
:1056000000BF00204FF0E02188610720086100BF43
:1056100000BF002080F3108800BF08BD40190100C2
:1056200018ED00E000E400E070B5002100230F2237
:10563000C4784CB31A4C246804F4E064C4F5E06404
:105640004FEA1421C1F1040322FA01F2447804FA6A
:1056500003F1847804EA020444EA01014FEA0111EB
:10566000104C0678A155047804F01F054FF0010492
:1056700004FA05F405784FEA65154FF0E02606EBCD
:105680008505C5F8004109E0047804F01F050124F0
:10569000AC40054D0678761145F8264070BD0000F7
:1056A0000CED00E000E400E080E100E0024901438D
:1056B000024A1160704700000000FA050CED00E09E
:1056C000024A0A400243024B1A60704780FFFF1FE4
:1056D00008ED00E0014908627047000000000E423A
:1056E0007047000025A02849086002200872502059
:1056F000487226A048600020C8602C4848612C48A9
:1057000088612CA0C86102211F4880F824106921FB
:1057100080F825100021816229A101622D490163D1
:105720002D4941632DA0184988630221164880F84D
:105730004010822180F84110002141642AA1C163F8
:105740002E49C1642E49016503202E4908700020AE
:10575000487022A048600C48C8602B4888602B48DD
:1057600008612B4848612B4888612B48C86108466E
:10577000006908620020486270470000D0C2D4F679
:10578000CAB1B6CE0000000038950020D4F6BCD3D4
:10579000D2BBB8F6CAB1B6CEB2A2C9E8D6C3B8C3B6
:1057A000CAB1B6CEB2CECAFD0000000031810008F9
:1057B000C57F0008C9BEB3FDCAB1B6CE0000000067
:1057C000C9BEB3FDD2BBB8F6D2D1D6AACAB1B6CE45
:1057D0000000000055910008B98F0008CAB1B6CE8C
:1057E000C9E8D6C300000000D0DEB8C4D2D1D6AA22
:1057F000CAB1B6CEB2CECAFD0000000055E5000821
:1058000015E4000810950020549300206DD2000884
:10581000E59E000885A00008D19F000825A0284922
:105820000860022008725020487226A048600020BC
:10583000C8602C4848612C4888612CA0C8610221AE
:105840001F4880F82410692180F82510002181620A
:1058500029A101622D4901632D4941632DA01849F9
:1058600088630221164880F84010822180F8411098
:10587000002141642AA1C1632E49C1642E490165FA
:1058800003202E490870002048702DA048600C4865
:10589000C8602E4888602E4808612E4848612E480E
:1058A00088612E48C8610846006908620020486285
:1058B00070470000D4F6BCD3CFE0CEBB00000000A0
:1058C000BC940020D4F6BCD3D2BBB8F6CFE0CEBB9C
:1058D000B2A2C9E8D6C3B8C3CFE0CEBBB2CECAFD30
:1058E000000000004D880008C1860008C9BEB3FD55
:1058F000CFE0CEBB00000000C9BEB3FDD2BBB8F6FE
:10590000D2D1D6AACFE0CEBB000000001D9B00087C
:105910000D990008CFE0CEBBC9E8D6C30000000057
:10592000D0DEB8C4CFD6D3D0CFE0CEBBB2CECAFD86
:10593000000000007DEF000881ED00089494002035
:10594000CFE0CEBBB2CBB5A5000000005493002041
:105950006DD20008E59E000885A00008D19F0008D0
:1059600029B1064AD2690243044BDA6104E0034AD2
:10597000D2698243014BDA61704700000010024097
:1059800029B1064A12690243044B1A6104E0034A32
:1059900012698243014B1A617047000000100240F7
:1059A00029B1064A92690243044B9A6104E0034A12
:1059B00092698243014B9A617047000000100240D7
:1059C00029B1064AD2680243044BDA6004E0034A74
:1059D000D2688243014BDA60704700000010024039
:1059E00001490860704700004004424210B500F0D1
:1059F00029F84FF4803000F0DFF800F063F9012C53
:105A000013D14FF4E011200400F034F9012000F02C
:105A10002BF9022000F04AF9002000F0C1F8A002A2
:105A200000F00AF9002000F013F9012145F27C0092
:105A3000FFF7B6FF01210248FFF792FF10BD0000FB
:105A4000110020180F48006840F001000D4908605F
:105A5000084640680C4908400A4948600846006802
:105A60000A490840074908600846006820F4802079
:105A700008600846406820F4FE0048604FF41F00AC
:105A800088607047001002400000FFF8FFFFF6FE3C
:105A900030B500210022002400232D4D6D6805F053
:105AA0000C0121B1042905D0082923D105E0294D95
:105AB000056022E0274D05601FE0254D6D6805F467
:105AC0007012234D6D6805F48034022505EB924277
:105AD0001CB9214D554305600BE01D4D6D6815F453
